{
	"contracts/DisSess-SeeMe.sol": {
		"PeerDiscovery": {
			"abi": [
				{
					"anonymous": false,
					"inputs": [
						{
							"indexed": false,
							"internalType": "address",
							"name": "peerAddress",
							"type": "address"
						}
					],
					"name": "PeerOffline",
					"type": "event"
				},
				{
					"anonymous": false,
					"inputs": [
						{
							"indexed": false,
							"internalType": "address",
							"name": "peerAddress",
							"type": "address"
						}
					],
					"name": "PeerOnline",
					"type": "event"
				},
				{
					"anonymous": false,
					"inputs": [
						{
							"indexed": false,
							"internalType": "uint256",
							"name": "sessionId",
							"type": "uint256"
						},
						{
							"indexed": false,
							"internalType": "uint256",
							"name": "endTime",
							"type": "uint256"
						}
					],
					"name": "SessionEnded",
					"type": "event"
				},
				{
					"anonymous": false,
					"inputs": [
						{
							"indexed": false,
							"internalType": "uint256",
							"name": "sessionId",
							"type": "uint256"
						},
						{
							"indexed": false,
							"internalType": "address",
							"name": "initiator",
							"type": "address"
						},
						{
							"indexed": false,
							"internalType": "address",
							"name": "responder",
							"type": "address"
						},
						{
							"indexed": false,
							"internalType": "uint256",
							"name": "startTime",
							"type": "uint256"
						}
					],
					"name": "SessionInitiated",
					"type": "event"
				},
				{
					"inputs": [
						{
							"internalType": "uint256",
							"name": "_sessionId",
							"type": "uint256"
						}
					],
					"name": "endSession",
					"outputs": [],
					"stateMutability": "nonpayable",
					"type": "function"
				},
				{
					"inputs": [
						{
							"internalType": "address",
							"name": "_peerAddress",
							"type": "address"
						},
						{
							"internalType": "string",
							"name": "_sessionData",
							"type": "string"
						}
					],
					"name": "initiateSession",
					"outputs": [],
					"stateMutability": "nonpayable",
					"type": "function"
				},
				{
					"inputs": [
						{
							"internalType": "address",
							"name": "",
							"type": "address"
						}
					],
					"name": "peers",
					"outputs": [
						{
							"internalType": "bool",
							"name": "isOnline",
							"type": "bool"
						},
						{
							"internalType": "address",
							"name": "peerAddress",
							"type": "address"
						},
						{
							"internalType": "uint256",
							"name": "sessionCount",
							"type": "uint256"
						}
					],
					"stateMutability": "view",
					"type": "function"
				},
				{
					"inputs": [
						{
							"internalType": "string[]",
							"name": "_capabilities",
							"type": "string[]"
						}
					],
					"name": "registerPeer",
					"outputs": [],
					"stateMutability": "nonpayable",
					"type": "function"
				},
				{
					"inputs": [],
					"name": "unregisterPeer",
					"outputs": [],
					"stateMutability": "nonpayable",
					"type": "function"
				}
			],
			"devdoc": {
				"kind": "dev",
				"methods": {},
				"version": 1
			},
			"evm": {
				"assembly": "    /* \"contracts/DisSess-SeeMe.sol\":61:3092  contract PeerDiscovery {... */\n  mstore(0x40, 0x80)\n  callvalue\n  dup1\n  iszero\n  tag_1\n  jumpi\n  0x00\n  dup1\n  revert\ntag_1:\n  pop\n  dataSize(sub_0)\n  dup1\n  dataOffset(sub_0)\n  0x00\n  codecopy\n  0x00\n  return\nstop\n\nsub_0: assembly {\n        /* \"contracts/DisSess-SeeMe.sol\":61:3092  contract PeerDiscovery {... */\n      mstore(0x40, 0x80)\n      callvalue\n      dup1\n      iszero\n      tag_1\n      jumpi\n      0x00\n      dup1\n      revert\n    tag_1:\n      pop\n      jumpi(tag_2, lt(calldatasize, 0x04))\n      shr(0xe0, calldataload(0x00))\n      dup1\n      0x1c8590ba\n      eq\n      tag_3\n      jumpi\n      dup1\n      0x26cc5583\n      eq\n      tag_4\n      jumpi\n      dup1\n      0x86815a25\n      eq\n      tag_5\n      jumpi\n      dup1\n      0xd7338dda\n      eq\n      tag_6\n      jumpi\n      dup1\n      0xe31599ae\n      eq\n      tag_7\n      jumpi\n    tag_2:\n      0x00\n      dup1\n      revert\n        /* \"contracts/DisSess-SeeMe.sol\":756:793  mapping(address => Peer) public peers */\n    tag_3:\n      tag_8\n      0x04\n      dup1\n      calldatasize\n      sub\n      dup2\n      add\n      swap1\n      tag_9\n      swap2\n      swap1\n      tag_10\n      jump\t// in\n    tag_9:\n      tag_11\n      jump\t// in\n    tag_8:\n      mload(0x40)\n      tag_12\n      swap4\n      swap3\n      swap2\n      swap1\n      tag_13\n      jump\t// in\n    tag_12:\n      mload(0x40)\n      dup1\n      swap2\n      sub\n      swap1\n      return\n        /* \"contracts/DisSess-SeeMe.sol\":2496:3089  function endSession(uint256 _sessionId) public {... */\n    tag_4:\n      tag_14\n      0x04\n      dup1\n      calldatasize\n      sub\n      dup2\n      add\n      swap1\n      tag_15\n      swap2\n      swap1\n      tag_16\n      jump\t// in\n    tag_15:\n      tag_17\n      jump\t// in\n    tag_14:\n      stop\n        /* \"contracts/DisSess-SeeMe.sol\":1648:1773  function unregisterPeer() public {... */\n    tag_5:\n      tag_18\n      tag_19\n      jump\t// in\n    tag_18:\n      stop\n        /* \"contracts/DisSess-SeeMe.sol\":1321:1581  function registerPeer(string[] memory _capabilities) public {... */\n    tag_6:\n      tag_20\n      0x04\n      dup1\n      calldatasize\n      sub\n      dup2\n      add\n      swap1\n      tag_21\n      swap2\n      swap1\n      tag_22\n      jump\t// in\n    tag_21:\n      tag_23\n      jump\t// in\n    tag_20:\n      stop\n        /* \"contracts/DisSess-SeeMe.sol\":1838:2454  function initiateSession(address _peerAddress, string memory _sessionData) public {... */\n    tag_7:\n      tag_24\n      0x04\n      dup1\n      calldatasize\n      sub\n      dup2\n      add\n      swap1\n      tag_25\n      swap2\n      swap1\n      tag_26\n      jump\t// in\n    tag_25:\n      tag_27\n      jump\t// in\n    tag_24:\n      stop\n        /* \"contracts/DisSess-SeeMe.sol\":756:793  mapping(address => Peer) public peers */\n    tag_11:\n      mstore(0x20, 0x00)\n      dup1\n      0x00\n      mstore\n      keccak256(0x00, 0x40)\n      0x00\n      swap2\n      pop\n      swap1\n      pop\n      dup1\n      0x00\n      add\n      0x00\n      swap1\n      sload\n      swap1\n      0x0100\n      exp\n      swap1\n      div\n      0xff\n      and\n      swap1\n      dup1\n      0x00\n      add\n      0x01\n      swap1\n      sload\n      swap1\n      0x0100\n      exp\n      swap1\n      div\n      0xffffffffffffffffffffffffffffffffffffffff\n      and\n      swap1\n      dup1\n      0x03\n      add\n      sload\n      swap1\n      pop\n      dup4\n      jump\t// out\n        /* \"contracts/DisSess-SeeMe.sol\":2496:3089  function endSession(uint256 _sessionId) public {... */\n    tag_17:\n        /* \"contracts/DisSess-SeeMe.sol\":2562:2567  peers */\n      0x00\n        /* \"contracts/DisSess-SeeMe.sol\":2562:2579  peers[msg.sender] */\n      dup1\n        /* \"contracts/DisSess-SeeMe.sol\":2568:2578  msg.sender */\n      caller\n        /* \"contracts/DisSess-SeeMe.sol\":2562:2579  peers[msg.sender] */\n      0xffffffffffffffffffffffffffffffffffffffff\n      and\n      0xffffffffffffffffffffffffffffffffffffffff\n      and\n      dup2\n      mstore\n      0x20\n      add\n      swap1\n      dup2\n      mstore\n      0x20\n      add\n      0x00\n      keccak256\n        /* \"contracts/DisSess-SeeMe.sol\":2562:2588  peers[msg.sender].sessions */\n      0x02\n      add\n        /* \"contracts/DisSess-SeeMe.sol\":2562:2600  peers[msg.sender].sessions[_sessionId] */\n      0x00\n        /* \"contracts/DisSess-SeeMe.sol\":2589:2599  _sessionId */\n      dup3\n        /* \"contracts/DisSess-SeeMe.sol\":2562:2600  peers[msg.sender].sessions[_sessionId] */\n      dup2\n      mstore\n      0x20\n      add\n      swap1\n      dup2\n      mstore\n      0x20\n      add\n      0x00\n      keccak256\n        /* \"contracts/DisSess-SeeMe.sol\":2562:2609  peers[msg.sender].sessions[_sessionId].isActive */\n      0x05\n      add\n      0x00\n      swap1\n      sload\n      swap1\n      0x0100\n      exp\n      swap1\n      div\n      0xff\n      and\n        /* \"contracts/DisSess-SeeMe.sol\":2554:2635  require(peers[msg.sender].sessions[_sessionId].isActive, \"Session is not active\") */\n      tag_29\n      jumpi\n      mload(0x40)\n      0x08c379a000000000000000000000000000000000000000000000000000000000\n      dup2\n      mstore\n      0x04\n      add\n      tag_30\n      swap1\n      tag_31\n      jump\t// in\n    tag_30:\n      mload(0x40)\n      dup1\n      swap2\n      sub\n      swap1\n      revert\n    tag_29:\n        /* \"contracts/DisSess-SeeMe.sol\":2706:2711  false */\n      0x00\n        /* \"contracts/DisSess-SeeMe.sol\":2656:2661  peers */\n      dup1\n        /* \"contracts/DisSess-SeeMe.sol\":2656:2673  peers[msg.sender] */\n      0x00\n        /* \"contracts/DisSess-SeeMe.sol\":2662:2672  msg.sender */\n      caller\n        /* \"contracts/DisSess-SeeMe.sol\":2656:2673  peers[msg.sender] */\n      0xffffffffffffffffffffffffffffffffffffffff\n      and\n      0xffffffffffffffffffffffffffffffffffffffff\n      and\n      dup2\n      mstore\n      0x20\n      add\n      swap1\n      dup2\n      mstore\n      0x20\n      add\n      0x00\n      keccak256\n        /* \"contracts/DisSess-SeeMe.sol\":2656:2682  peers[msg.sender].sessions */\n      0x02\n      add\n        /* \"contracts/DisSess-SeeMe.sol\":2656:2694  peers[msg.sender].sessions[_sessionId] */\n      0x00\n        /* \"contracts/DisSess-SeeMe.sol\":2683:2693  _sessionId */\n      dup4\n        /* \"contracts/DisSess-SeeMe.sol\":2656:2694  peers[msg.sender].sessions[_sessionId] */\n      dup2\n      mstore\n      0x20\n      add\n      swap1\n      dup2\n      mstore\n      0x20\n      add\n      0x00\n      keccak256\n        /* \"contracts/DisSess-SeeMe.sol\":2656:2703  peers[msg.sender].sessions[_sessionId].isActive */\n      0x05\n      add\n      0x00\n        /* \"contracts/DisSess-SeeMe.sol\":2656:2711  peers[msg.sender].sessions[_sessionId].isActive = false */\n      0x0100\n      exp\n      dup2\n      sload\n      dup2\n      0xff\n      mul\n      not\n      and\n      swap1\n      dup4\n      iszero\n      iszero\n      mul\n      or\n      swap1\n      sstore\n      pop\n        /* \"contracts/DisSess-SeeMe.sol\":2771:2786  block.timestamp */\n      timestamp\n        /* \"contracts/DisSess-SeeMe.sol\":2722:2727  peers */\n      0x00\n        /* \"contracts/DisSess-SeeMe.sol\":2722:2739  peers[msg.sender] */\n      dup1\n        /* \"contracts/DisSess-SeeMe.sol\":2728:2738  msg.sender */\n      caller\n        /* \"contracts/DisSess-SeeMe.sol\":2722:2739  peers[msg.sender] */\n      0xffffffffffffffffffffffffffffffffffffffff\n      and\n      0xffffffffffffffffffffffffffffffffffffffff\n      and\n      dup2\n      mstore\n      0x20\n      add\n      swap1\n      dup2\n      mstore\n      0x20\n      add\n      0x00\n      keccak256\n        /* \"contracts/DisSess-SeeMe.sol\":2722:2748  peers[msg.sender].sessions */\n      0x02\n      add\n        /* \"contracts/DisSess-SeeMe.sol\":2722:2760  peers[msg.sender].sessions[_sessionId] */\n      0x00\n        /* \"contracts/DisSess-SeeMe.sol\":2749:2759  _sessionId */\n      dup4\n        /* \"contracts/DisSess-SeeMe.sol\":2722:2760  peers[msg.sender].sessions[_sessionId] */\n      dup2\n      mstore\n      0x20\n      add\n      swap1\n      dup2\n      mstore\n      0x20\n      add\n      0x00\n      keccak256\n        /* \"contracts/DisSess-SeeMe.sol\":2722:2768  peers[msg.sender].sessions[_sessionId].endTime */\n      0x03\n      add\n        /* \"contracts/DisSess-SeeMe.sol\":2722:2786  peers[msg.sender].sessions[_sessionId].endTime = block.timestamp */\n      dup2\n      swap1\n      sstore\n      pop\n        /* \"contracts/DisSess-SeeMe.sol\":2807:2824  address responder */\n      0x00\n        /* \"contracts/DisSess-SeeMe.sol\":2827:2832  peers */\n      dup1\n        /* \"contracts/DisSess-SeeMe.sol\":2827:2844  peers[msg.sender] */\n      0x00\n        /* \"contracts/DisSess-SeeMe.sol\":2833:2843  msg.sender */\n      caller\n        /* \"contracts/DisSess-SeeMe.sol\":2827:2844  peers[msg.sender] */\n      0xffffffffffffffffffffffffffffffffffffffff\n      and\n      0xffffffffffffffffffffffffffffffffffffffff\n      and\n      dup2\n      mstore\n      0x20\n      add\n      swap1\n      dup2\n      mstore\n      0x20\n      add\n      0x00\n      keccak256\n        /* \"contracts/DisSess-SeeMe.sol\":2827:2853  peers[msg.sender].sessions */\n      0x02\n      add\n        /* \"contracts/DisSess-SeeMe.sol\":2827:2865  peers[msg.sender].sessions[_sessionId] */\n      0x00\n        /* \"contracts/DisSess-SeeMe.sol\":2854:2864  _sessionId */\n      dup4\n        /* \"contracts/DisSess-SeeMe.sol\":2827:2865  peers[msg.sender].sessions[_sessionId] */\n      dup2\n      mstore\n      0x20\n      add\n      swap1\n      dup2\n      mstore\n      0x20\n      add\n      0x00\n      keccak256\n        /* \"contracts/DisSess-SeeMe.sol\":2827:2875  peers[msg.sender].sessions[_sessionId].responder */\n      0x01\n      add\n      0x00\n      swap1\n      sload\n      swap1\n      0x0100\n      exp\n      swap1\n      div\n      0xffffffffffffffffffffffffffffffffffffffff\n      and\n        /* \"contracts/DisSess-SeeMe.sol\":2807:2875  address responder = peers[msg.sender].sessions[_sessionId].responder */\n      swap1\n      pop\n        /* \"contracts/DisSess-SeeMe.sol\":2935:2940  false */\n      0x00\n        /* \"contracts/DisSess-SeeMe.sol\":2886:2891  peers */\n      dup1\n        /* \"contracts/DisSess-SeeMe.sol\":2886:2902  peers[responder] */\n      0x00\n        /* \"contracts/DisSess-SeeMe.sol\":2892:2901  responder */\n      dup4\n        /* \"contracts/DisSess-SeeMe.sol\":2886:2902  peers[responder] */\n      0xffffffffffffffffffffffffffffffffffffffff\n      and\n      0xffffffffffffffffffffffffffffffffffffffff\n      and\n      dup2\n      mstore\n      0x20\n      add\n      swap1\n      dup2\n      mstore\n      0x20\n      add\n      0x00\n      keccak256\n        /* \"contracts/DisSess-SeeMe.sol\":2886:2911  peers[responder].sessions */\n      0x02\n      add\n        /* \"contracts/DisSess-SeeMe.sol\":2886:2923  peers[responder].sessions[_sessionId] */\n      0x00\n        /* \"contracts/DisSess-SeeMe.sol\":2912:2922  _sessionId */\n      dup5\n        /* \"contracts/DisSess-SeeMe.sol\":2886:2923  peers[responder].sessions[_sessionId] */\n      dup2\n      mstore\n      0x20\n      add\n      swap1\n      dup2\n      mstore\n      0x20\n      add\n      0x00\n      keccak256\n        /* \"contracts/DisSess-SeeMe.sol\":2886:2932  peers[responder].sessions[_sessionId].isActive */\n      0x05\n      add\n      0x00\n        /* \"contracts/DisSess-SeeMe.sol\":2886:2940  peers[responder].sessions[_sessionId].isActive = false */\n      0x0100\n      exp\n      dup2\n      sload\n      dup2\n      0xff\n      mul\n      not\n      and\n      swap1\n      dup4\n      iszero\n      iszero\n      mul\n      or\n      swap1\n      sstore\n      pop\n        /* \"contracts/DisSess-SeeMe.sol\":2999:3014  block.timestamp */\n      timestamp\n        /* \"contracts/DisSess-SeeMe.sol\":2951:2956  peers */\n      0x00\n        /* \"contracts/DisSess-SeeMe.sol\":2951:2967  peers[responder] */\n      dup1\n        /* \"contracts/DisSess-SeeMe.sol\":2957:2966  responder */\n      dup4\n        /* \"contracts/DisSess-SeeMe.sol\":2951:2967  peers[responder] */\n      0xffffffffffffffffffffffffffffffffffffffff\n      and\n      0xffffffffffffffffffffffffffffffffffffffff\n      and\n      dup2\n      mstore\n      0x20\n      add\n      swap1\n      dup2\n      mstore\n      0x20\n      add\n      0x00\n      keccak256\n        /* \"contracts/DisSess-SeeMe.sol\":2951:2976  peers[responder].sessions */\n      0x02\n      add\n        /* \"contracts/DisSess-SeeMe.sol\":2951:2988  peers[responder].sessions[_sessionId] */\n      0x00\n        /* \"contracts/DisSess-SeeMe.sol\":2977:2987  _sessionId */\n      dup5\n        /* \"contracts/DisSess-SeeMe.sol\":2951:2988  peers[responder].sessions[_sessionId] */\n      dup2\n      mstore\n      0x20\n      add\n      swap1\n      dup2\n      mstore\n      0x20\n      add\n      0x00\n      keccak256\n        /* \"contracts/DisSess-SeeMe.sol\":2951:2996  peers[responder].sessions[_sessionId].endTime */\n      0x03\n      add\n        /* \"contracts/DisSess-SeeMe.sol\":2951:3014  peers[responder].sessions[_sessionId].endTime = block.timestamp */\n      dup2\n      swap1\n      sstore\n      pop\n        /* \"contracts/DisSess-SeeMe.sol\":3040:3081  SessionEnded(_sessionId, block.timestamp) */\n      0xe4bdf3c3959e99d1ee4e5254bb9290bc5f6e3defb54820041d5245054448bb73\n        /* \"contracts/DisSess-SeeMe.sol\":3053:3063  _sessionId */\n      dup3\n        /* \"contracts/DisSess-SeeMe.sol\":3065:3080  block.timestamp */\n      timestamp\n        /* \"contracts/DisSess-SeeMe.sol\":3040:3081  SessionEnded(_sessionId, block.timestamp) */\n      mload(0x40)\n      tag_32\n      swap3\n      swap2\n      swap1\n      tag_33\n      jump\t// in\n    tag_32:\n      mload(0x40)\n      dup1\n      swap2\n      sub\n      swap1\n      log1\n        /* \"contracts/DisSess-SeeMe.sol\":2543:3089  {... */\n      pop\n        /* \"contracts/DisSess-SeeMe.sol\":2496:3089  function endSession(uint256 _sessionId) public {... */\n      pop\n      jump\t// out\n        /* \"contracts/DisSess-SeeMe.sol\":1648:1773  function unregisterPeer() public {... */\n    tag_19:\n        /* \"contracts/DisSess-SeeMe.sol\":1721:1726  false */\n      0x00\n        /* \"contracts/DisSess-SeeMe.sol\":1692:1697  peers */\n      dup1\n        /* \"contracts/DisSess-SeeMe.sol\":1692:1709  peers[msg.sender] */\n      0x00\n        /* \"contracts/DisSess-SeeMe.sol\":1698:1708  msg.sender */\n      caller\n        /* \"contracts/DisSess-SeeMe.sol\":1692:1709  peers[msg.sender] */\n      0xffffffffffffffffffffffffffffffffffffffff\n      and\n      0xffffffffffffffffffffffffffffffffffffffff\n      and\n      dup2\n      mstore\n      0x20\n      add\n      swap1\n      dup2\n      mstore\n      0x20\n      add\n      0x00\n      keccak256\n        /* \"contracts/DisSess-SeeMe.sol\":1692:1718  peers[msg.sender].isOnline */\n      0x00\n      add\n      0x00\n        /* \"contracts/DisSess-SeeMe.sol\":1692:1726  peers[msg.sender].isOnline = false */\n      0x0100\n      exp\n      dup2\n      sload\n      dup2\n      0xff\n      mul\n      not\n      and\n      swap1\n      dup4\n      iszero\n      iszero\n      mul\n      or\n      swap1\n      sstore\n      pop\n        /* \"contracts/DisSess-SeeMe.sol\":1742:1765  PeerOffline(msg.sender) */\n      0xcb01be1350504f575a8d64e20d60d1229b82390e20a11d02b87d05d55bc3bc0f\n        /* \"contracts/DisSess-SeeMe.sol\":1754:1764  msg.sender */\n      caller\n        /* \"contracts/DisSess-SeeMe.sol\":1742:1765  PeerOffline(msg.sender) */\n      mload(0x40)\n      tag_35\n      swap2\n      swap1\n      tag_36\n      jump\t// in\n    tag_35:\n      mload(0x40)\n      dup1\n      swap2\n      sub\n      swap1\n      log1\n        /* \"contracts/DisSess-SeeMe.sol\":1648:1773  function unregisterPeer() public {... */\n      jump\t// out\n        /* \"contracts/DisSess-SeeMe.sol\":1321:1581  function registerPeer(string[] memory _capabilities) public {... */\n    tag_23:\n        /* \"contracts/DisSess-SeeMe.sol\":1421:1425  true */\n      0x01\n        /* \"contracts/DisSess-SeeMe.sol\":1392:1397  peers */\n      0x00\n        /* \"contracts/DisSess-SeeMe.sol\":1392:1409  peers[msg.sender] */\n      dup1\n        /* \"contracts/DisSess-SeeMe.sol\":1398:1408  msg.sender */\n      caller\n        /* \"contracts/DisSess-SeeMe.sol\":1392:1409  peers[msg.sender] */\n      0xffffffffffffffffffffffffffffffffffffffff\n      and\n      0xffffffffffffffffffffffffffffffffffffffff\n      and\n      dup2\n      mstore\n      0x20\n      add\n      swap1\n      dup2\n      mstore\n      0x20\n      add\n      0x00\n      keccak256\n        /* \"contracts/DisSess-SeeMe.sol\":1392:1418  peers[msg.sender].isOnline */\n      0x00\n      add\n      0x00\n        /* \"contracts/DisSess-SeeMe.sol\":1392:1425  peers[msg.sender].isOnline = true */\n      0x0100\n      exp\n      dup2\n      sload\n      dup2\n      0xff\n      mul\n      not\n      and\n      swap1\n      dup4\n      iszero\n      iszero\n      mul\n      or\n      swap1\n      sstore\n      pop\n        /* \"contracts/DisSess-SeeMe.sol\":1468:1478  msg.sender */\n      caller\n        /* \"contracts/DisSess-SeeMe.sol\":1436:1441  peers */\n      0x00\n        /* \"contracts/DisSess-SeeMe.sol\":1436:1453  peers[msg.sender] */\n      dup1\n        /* \"contracts/DisSess-SeeMe.sol\":1442:1452  msg.sender */\n      caller\n        /* \"contracts/DisSess-SeeMe.sol\":1436:1453  peers[msg.sender] */\n      0xffffffffffffffffffffffffffffffffffffffff\n      and\n      0xffffffffffffffffffffffffffffffffffffffff\n      and\n      dup2\n      mstore\n      0x20\n      add\n      swap1\n      dup2\n      mstore\n      0x20\n      add\n      0x00\n      keccak256\n        /* \"contracts/DisSess-SeeMe.sol\":1436:1465  peers[msg.sender].peerAddress */\n      0x00\n      add\n      0x01\n        /* \"contracts/DisSess-SeeMe.sol\":1436:1478  peers[msg.sender].peerAddress = msg.sender */\n      0x0100\n      exp\n      dup2\n      sload\n      dup2\n      0xffffffffffffffffffffffffffffffffffffffff\n      mul\n      not\n      and\n      swap1\n      dup4\n      0xffffffffffffffffffffffffffffffffffffffff\n      and\n      mul\n      or\n      swap1\n      sstore\n      pop\n        /* \"contracts/DisSess-SeeMe.sol\":1522:1535  _capabilities */\n      dup1\n        /* \"contracts/DisSess-SeeMe.sol\":1489:1494  peers */\n      0x00\n        /* \"contracts/DisSess-SeeMe.sol\":1489:1506  peers[msg.sender] */\n      dup1\n        /* \"contracts/DisSess-SeeMe.sol\":1495:1505  msg.sender */\n      caller\n        /* \"contracts/DisSess-SeeMe.sol\":1489:1506  peers[msg.sender] */\n      0xffffffffffffffffffffffffffffffffffffffff\n      and\n      0xffffffffffffffffffffffffffffffffffffffff\n      and\n      dup2\n      mstore\n      0x20\n      add\n      swap1\n      dup2\n      mstore\n      0x20\n      add\n      0x00\n      keccak256\n        /* \"contracts/DisSess-SeeMe.sol\":1489:1519  peers[msg.sender].capabilities */\n      0x01\n      add\n        /* \"contracts/DisSess-SeeMe.sol\":1489:1535  peers[msg.sender].capabilities = _capabilities */\n      swap1\n      dup1\n      mload\n      swap1\n      0x20\n      add\n      swap1\n      tag_38\n      swap3\n      swap2\n      swap1\n      tag_39\n      jump\t// in\n    tag_38:\n      pop\n        /* \"contracts/DisSess-SeeMe.sol\":1551:1573  PeerOnline(msg.sender) */\n      0xcec2b9efad72fc6d5e9251a23fc0a71291337ae547ba85241a8bf80bb2c703e3\n        /* \"contracts/DisSess-SeeMe.sol\":1562:1572  msg.sender */\n      caller\n        /* \"contracts/DisSess-SeeMe.sol\":1551:1573  PeerOnline(msg.sender) */\n      mload(0x40)\n      tag_40\n      swap2\n      swap1\n      tag_36\n      jump\t// in\n    tag_40:\n      mload(0x40)\n      dup1\n      swap2\n      sub\n      swap1\n      log1\n        /* \"contracts/DisSess-SeeMe.sol\":1321:1581  function registerPeer(string[] memory _capabilities) public {... */\n      pop\n      jump\t// out\n        /* \"contracts/DisSess-SeeMe.sol\":1838:2454  function initiateSession(address _peerAddress, string memory _sessionData) public {... */\n    tag_27:\n        /* \"contracts/DisSess-SeeMe.sol\":1939:1944  peers */\n      0x00\n        /* \"contracts/DisSess-SeeMe.sol\":1939:1956  peers[msg.sender] */\n      dup1\n        /* \"contracts/DisSess-SeeMe.sol\":1945:1955  msg.sender */\n      caller\n        /* \"contracts/DisSess-SeeMe.sol\":1939:1956  peers[msg.sender] */\n      0xffffffffffffffffffffffffffffffffffffffff\n      and\n      0xffffffffffffffffffffffffffffffffffffffff\n      and\n      dup2\n      mstore\n      0x20\n      add\n      swap1\n      dup2\n      mstore\n      0x20\n      add\n      0x00\n      keccak256\n        /* \"contracts/DisSess-SeeMe.sol\":1939:1965  peers[msg.sender].isOnline */\n      0x00\n      add\n      0x00\n      swap1\n      sload\n      swap1\n      0x0100\n      exp\n      swap1\n      div\n      0xff\n      and\n        /* \"contracts/DisSess-SeeMe.sol\":1939:1997  peers[msg.sender].isOnline && peers[_peerAddress].isOnline */\n      dup1\n      iszero\n      tag_42\n      jumpi\n      pop\n        /* \"contracts/DisSess-SeeMe.sol\":1969:1974  peers */\n      0x00\n        /* \"contracts/DisSess-SeeMe.sol\":1969:1988  peers[_peerAddress] */\n      dup1\n        /* \"contracts/DisSess-SeeMe.sol\":1975:1987  _peerAddress */\n      dup4\n        /* \"contracts/DisSess-SeeMe.sol\":1969:1988  peers[_peerAddress] */\n      0xffffffffffffffffffffffffffffffffffffffff\n      and\n      0xffffffffffffffffffffffffffffffffffffffff\n      and\n      dup2\n      mstore\n      0x20\n      add\n      swap1\n      dup2\n      mstore\n      0x20\n      add\n      0x00\n      keccak256\n        /* \"contracts/DisSess-SeeMe.sol\":1969:1997  peers[_peerAddress].isOnline */\n      0x00\n      add\n      0x00\n      swap1\n      sload\n      swap1\n      0x0100\n      exp\n      swap1\n      div\n      0xff\n      and\n        /* \"contracts/DisSess-SeeMe.sol\":1939:1997  peers[msg.sender].isOnline && peers[_peerAddress].isOnline */\n    tag_42:\n        /* \"contracts/DisSess-SeeMe.sol\":1931:2027  require(peers[msg.sender].isOnline && peers[_peerAddress].isOnline, \"Both peers must be online\") */\n      tag_43\n      jumpi\n      mload(0x40)\n      0x08c379a000000000000000000000000000000000000000000000000000000000\n      dup2\n      mstore\n      0x04\n      add\n      tag_44\n      swap1\n      tag_45\n      jump\t// in\n    tag_44:\n      mload(0x40)\n      dup1\n      swap2\n      sub\n      swap1\n      revert\n    tag_43:\n        /* \"contracts/DisSess-SeeMe.sol\":2048:2065  uint256 sessionId */\n      0x00\n        /* \"contracts/DisSess-SeeMe.sol\":2068:2073  peers */\n      dup1\n        /* \"contracts/DisSess-SeeMe.sol\":2068:2085  peers[msg.sender] */\n      0x00\n        /* \"contracts/DisSess-SeeMe.sol\":2074:2084  msg.sender */\n      caller\n        /* \"contracts/DisSess-SeeMe.sol\":2068:2085  peers[msg.sender] */\n      0xffffffffffffffffffffffffffffffffffffffff\n      and\n      0xffffffffffffffffffffffffffffffffffffffff\n      and\n      dup2\n      mstore\n      0x20\n      add\n      swap1\n      dup2\n      mstore\n      0x20\n      add\n      0x00\n      keccak256\n        /* \"contracts/DisSess-SeeMe.sol\":2068:2098  peers[msg.sender].sessionCount */\n      0x03\n      add\n      0x00\n        /* \"contracts/DisSess-SeeMe.sol\":2068:2100  peers[msg.sender].sessionCount++ */\n      dup2\n      sload\n      dup1\n      swap3\n      swap2\n      swap1\n      tag_46\n      swap1\n      tag_47\n      jump\t// in\n    tag_46:\n      swap2\n      swap1\n      pop\n      sstore\n        /* \"contracts/DisSess-SeeMe.sol\":2048:2100  uint256 sessionId = peers[msg.sender].sessionCount++ */\n      swap1\n      pop\n        /* \"contracts/DisSess-SeeMe.sol\":2151:2224  Session(msg.sender, _peerAddress, block.timestamp, 0, _sessionData, true) */\n      mload(0x40)\n      dup1\n      0xc0\n      add\n      0x40\n      mstore\n      dup1\n        /* \"contracts/DisSess-SeeMe.sol\":2159:2169  msg.sender */\n      caller\n        /* \"contracts/DisSess-SeeMe.sol\":2151:2224  Session(msg.sender, _peerAddress, block.timestamp, 0, _sessionData, true) */\n      0xffffffffffffffffffffffffffffffffffffffff\n      and\n      dup2\n      mstore\n      0x20\n      add\n        /* \"contracts/DisSess-SeeMe.sol\":2171:2183  _peerAddress */\n      dup5\n        /* \"contracts/DisSess-SeeMe.sol\":2151:2224  Session(msg.sender, _peerAddress, block.timestamp, 0, _sessionData, true) */\n      0xffffffffffffffffffffffffffffffffffffffff\n      and\n      dup2\n      mstore\n      0x20\n      add\n        /* \"contracts/DisSess-SeeMe.sol\":2185:2200  block.timestamp */\n      timestamp\n        /* \"contracts/DisSess-SeeMe.sol\":2151:2224  Session(msg.sender, _peerAddress, block.timestamp, 0, _sessionData, true) */\n      dup2\n      mstore\n      0x20\n      add\n        /* \"contracts/DisSess-SeeMe.sol\":2202:2203  0 */\n      0x00\n        /* \"contracts/DisSess-SeeMe.sol\":2151:2224  Session(msg.sender, _peerAddress, block.timestamp, 0, _sessionData, true) */\n      dup2\n      mstore\n      0x20\n      add\n        /* \"contracts/DisSess-SeeMe.sol\":2205:2217  _sessionData */\n      dup4\n        /* \"contracts/DisSess-SeeMe.sol\":2151:2224  Session(msg.sender, _peerAddress, block.timestamp, 0, _sessionData, true) */\n      dup2\n      mstore\n      0x20\n      add\n        /* \"contracts/DisSess-SeeMe.sol\":2219:2223  true */\n      0x01\n        /* \"contracts/DisSess-SeeMe.sol\":2151:2224  Session(msg.sender, _peerAddress, block.timestamp, 0, _sessionData, true) */\n      iszero\n      iszero\n      dup2\n      mstore\n      pop\n        /* \"contracts/DisSess-SeeMe.sol\":2111:2116  peers */\n      0x00\n        /* \"contracts/DisSess-SeeMe.sol\":2111:2128  peers[msg.sender] */\n      dup1\n        /* \"contracts/DisSess-SeeMe.sol\":2117:2127  msg.sender */\n      caller\n        /* \"contracts/DisSess-SeeMe.sol\":2111:2128  peers[msg.sender] */\n      0xffffffffffffffffffffffffffffffffffffffff\n      and\n      0xffffffffffffffffffffffffffffffffffffffff\n      and\n      dup2\n      mstore\n      0x20\n      add\n      swap1\n      dup2\n      mstore\n      0x20\n      add\n      0x00\n      keccak256\n        /* \"contracts/DisSess-SeeMe.sol\":2111:2137  peers[msg.sender].sessions */\n      0x02\n      add\n        /* \"contracts/DisSess-SeeMe.sol\":2111:2148  peers[msg.sender].sessions[sessionId] */\n      0x00\n        /* \"contracts/DisSess-SeeMe.sol\":2138:2147  sessionId */\n      dup4\n        /* \"contracts/DisSess-SeeMe.sol\":2111:2148  peers[msg.sender].sessions[sessionId] */\n      dup2\n      mstore\n      0x20\n      add\n      swap1\n      dup2\n      mstore\n      0x20\n      add\n      0x00\n      keccak256\n        /* \"contracts/DisSess-SeeMe.sol\":2111:2224  peers[msg.sender].sessions[sessionId] = Session(msg.sender, _peerAddress, block.timestamp, 0, _sessionData, true) */\n      0x00\n      dup3\n      add\n      mload\n      dup2\n      0x00\n      add\n      exp(0x0100, 0x00)\n      dup2\n      sload\n      dup2\n      0xffffffffffffffffffffffffffffffffffffffff\n      mul\n      not\n      and\n      swap1\n      dup4\n      0xffffffffffffffffffffffffffffffffffffffff\n      and\n      mul\n      or\n      swap1\n      sstore\n      pop\n      0x20\n      dup3\n      add\n      mload\n      dup2\n      0x01\n      add\n      exp(0x0100, 0x00)\n      dup2\n      sload\n      dup2\n      0xffffffffffffffffffffffffffffffffffffffff\n      mul\n      not\n      and\n      swap1\n      dup4\n      0xffffffffffffffffffffffffffffffffffffffff\n      and\n      mul\n      or\n      swap1\n      sstore\n      pop\n      0x40\n      dup3\n      add\n      mload\n      dup2\n      0x02\n      add\n      sstore\n      0x60\n      dup3\n      add\n      mload\n      dup2\n      0x03\n      add\n      sstore\n      0x80\n      dup3\n      add\n      mload\n      dup2\n      0x04\n      add\n      swap1\n      dup2\n      tag_48\n      swap2\n      swap1\n      tag_49\n      jump\t// in\n    tag_48:\n      pop\n      0xa0\n      dup3\n      add\n      mload\n      dup2\n      0x05\n      add\n      exp(0x0100, 0x00)\n      dup2\n      sload\n      dup2\n      0xff\n      mul\n      not\n      and\n      swap1\n      dup4\n      iszero\n      iszero\n      mul\n      or\n      swap1\n      sstore\n      pop\n      swap1\n      pop\n      pop\n        /* \"contracts/DisSess-SeeMe.sol\":2277:2350  Session(msg.sender, _peerAddress, block.timestamp, 0, _sessionData, true) */\n      mload(0x40)\n      dup1\n      0xc0\n      add\n      0x40\n      mstore\n      dup1\n        /* \"contracts/DisSess-SeeMe.sol\":2285:2295  msg.sender */\n      caller\n        /* \"contracts/DisSess-SeeMe.sol\":2277:2350  Session(msg.sender, _peerAddress, block.timestamp, 0, _sessionData, true) */\n      0xffffffffffffffffffffffffffffffffffffffff\n      and\n      dup2\n      mstore\n      0x20\n      add\n        /* \"contracts/DisSess-SeeMe.sol\":2297:2309  _peerAddress */\n      dup5\n        /* \"contracts/DisSess-SeeMe.sol\":2277:2350  Session(msg.sender, _peerAddress, block.timestamp, 0, _sessionData, true) */\n      0xffffffffffffffffffffffffffffffffffffffff\n      and\n      dup2\n      mstore\n      0x20\n      add\n        /* \"contracts/DisSess-SeeMe.sol\":2311:2326  block.timestamp */\n      timestamp\n        /* \"contracts/DisSess-SeeMe.sol\":2277:2350  Session(msg.sender, _peerAddress, block.timestamp, 0, _sessionData, true) */\n      dup2\n      mstore\n      0x20\n      add\n        /* \"contracts/DisSess-SeeMe.sol\":2328:2329  0 */\n      0x00\n        /* \"contracts/DisSess-SeeMe.sol\":2277:2350  Session(msg.sender, _peerAddress, block.timestamp, 0, _sessionData, true) */\n      dup2\n      mstore\n      0x20\n      add\n        /* \"contracts/DisSess-SeeMe.sol\":2331:2343  _sessionData */\n      dup4\n        /* \"contracts/DisSess-SeeMe.sol\":2277:2350  Session(msg.sender, _peerAddress, block.timestamp, 0, _sessionData, true) */\n      dup2\n      mstore\n      0x20\n      add\n        /* \"contracts/DisSess-SeeMe.sol\":2345:2349  true */\n      0x01\n        /* \"contracts/DisSess-SeeMe.sol\":2277:2350  Session(msg.sender, _peerAddress, block.timestamp, 0, _sessionData, true) */\n      iszero\n      iszero\n      dup2\n      mstore\n      pop\n        /* \"contracts/DisSess-SeeMe.sol\":2235:2240  peers */\n      0x00\n        /* \"contracts/DisSess-SeeMe.sol\":2235:2254  peers[_peerAddress] */\n      dup1\n        /* \"contracts/DisSess-SeeMe.sol\":2241:2253  _peerAddress */\n      dup6\n        /* \"contracts/DisSess-SeeMe.sol\":2235:2254  peers[_peerAddress] */\n      0xffffffffffffffffffffffffffffffffffffffff\n      and\n      0xffffffffffffffffffffffffffffffffffffffff\n      and\n      dup2\n      mstore\n      0x20\n      add\n      swap1\n      dup2\n      mstore\n      0x20\n      add\n      0x00\n      keccak256\n        /* \"contracts/DisSess-SeeMe.sol\":2235:2263  peers[_peerAddress].sessions */\n      0x02\n      add\n        /* \"contracts/DisSess-SeeMe.sol\":2235:2274  peers[_peerAddress].sessions[sessionId] */\n      0x00\n        /* \"contracts/DisSess-SeeMe.sol\":2264:2273  sessionId */\n      dup4\n        /* \"contracts/DisSess-SeeMe.sol\":2235:2274  peers[_peerAddress].sessions[sessionId] */\n      dup2\n      mstore\n      0x20\n      add\n      swap1\n      dup2\n      mstore\n      0x20\n      add\n      0x00\n      keccak256\n        /* \"contracts/DisSess-SeeMe.sol\":2235:2350  peers[_peerAddress].sessions[sessionId] = Session(msg.sender, _peerAddress, block.timestamp, 0, _sessionData, true) */\n      0x00\n      dup3\n      add\n      mload\n      dup2\n      0x00\n      add\n      exp(0x0100, 0x00)\n      dup2\n      sload\n      dup2\n      0xffffffffffffffffffffffffffffffffffffffff\n      mul\n      not\n      and\n      swap1\n      dup4\n      0xffffffffffffffffffffffffffffffffffffffff\n      and\n      mul\n      or\n      swap1\n      sstore\n      pop\n      0x20\n      dup3\n      add\n      mload\n      dup2\n      0x01\n      add\n      exp(0x0100, 0x00)\n      dup2\n      sload\n      dup2\n      0xffffffffffffffffffffffffffffffffffffffff\n      mul\n      not\n      and\n      swap1\n      dup4\n      0xffffffffffffffffffffffffffffffffffffffff\n      and\n      mul\n      or\n      swap1\n      sstore\n      pop\n      0x40\n      dup3\n      add\n      mload\n      dup2\n      0x02\n      add\n      sstore\n      0x60\n      dup3\n      add\n      mload\n      dup2\n      0x03\n      add\n      sstore\n      0x80\n      dup3\n      add\n      mload\n      dup2\n      0x04\n      add\n      swap1\n      dup2\n      tag_50\n      swap2\n      swap1\n      tag_49\n      jump\t// in\n    tag_50:\n      pop\n      0xa0\n      dup3\n      add\n      mload\n      dup2\n      0x05\n      add\n      exp(0x0100, 0x00)\n      dup2\n      sload\n      dup2\n      0xff\n      mul\n      not\n      and\n      swap1\n      dup4\n      iszero\n      iszero\n      mul\n      or\n      swap1\n      sstore\n      pop\n      swap1\n      pop\n      pop\n        /* \"contracts/DisSess-SeeMe.sol\":2376:2446  SessionInitiated(sessionId, msg.sender, _peerAddress, block.timestamp) */\n      0xc4a3de8f8e1b004881a4dcb1466a95aea964d9016dc6cbaadc161da2487a4402\n        /* \"contracts/DisSess-SeeMe.sol\":2393:2402  sessionId */\n      dup2\n        /* \"contracts/DisSess-SeeMe.sol\":2404:2414  msg.sender */\n      caller\n        /* \"contracts/DisSess-SeeMe.sol\":2416:2428  _peerAddress */\n      dup6\n        /* \"contracts/DisSess-SeeMe.sol\":2430:2445  block.timestamp */\n      timestamp\n        /* \"contracts/DisSess-SeeMe.sol\":2376:2446  SessionInitiated(sessionId, msg.sender, _peerAddress, block.timestamp) */\n      mload(0x40)\n      tag_51\n      swap5\n      swap4\n      swap3\n      swap2\n      swap1\n      tag_52\n      jump\t// in\n    tag_51:\n      mload(0x40)\n      dup1\n      swap2\n      sub\n      swap1\n      log1\n        /* \"contracts/DisSess-SeeMe.sol\":1920:2454  {... */\n      pop\n        /* \"contracts/DisSess-SeeMe.sol\":1838:2454  function initiateSession(address _peerAddress, string memory _sessionData) public {... */\n      pop\n      pop\n      jump\t// out\n    tag_39:\n      dup3\n      dup1\n      sload\n      dup3\n      dup3\n      sstore\n      swap1\n      0x00\n      mstore\n      keccak256(0x00, 0x20)\n      swap1\n      dup2\n      add\n      swap3\n      dup3\n      iszero\n      tag_53\n      jumpi\n      swap2\n      0x20\n      mul\n      dup3\n      add\n    tag_54:\n      dup3\n      dup2\n      gt\n      iszero\n      tag_55\n      jumpi\n      dup3\n      mload\n      dup3\n      swap1\n      dup2\n      tag_56\n      swap2\n      swap1\n      tag_49\n      jump\t// in\n    tag_56:\n      pop\n      swap2\n      0x20\n      add\n      swap2\n      swap1\n      0x01\n      add\n      swap1\n      jump(tag_54)\n    tag_55:\n    tag_53:\n      pop\n      swap1\n      pop\n      tag_57\n      swap2\n      swap1\n      tag_58\n      jump\t// in\n    tag_57:\n      pop\n      swap1\n      jump\t// out\n    tag_58:\n    tag_59:\n      dup1\n      dup3\n      gt\n      iszero\n      tag_60\n      jumpi\n      0x00\n      dup2\n      dup2\n      tag_61\n      swap2\n      swap1\n      tag_62\n      jump\t// in\n    tag_61:\n      pop\n      0x01\n      add\n      jump(tag_59)\n    tag_60:\n      pop\n      swap1\n      jump\t// out\n    tag_62:\n      pop\n      dup1\n      sload\n      tag_63\n      swap1\n      tag_64\n      jump\t// in\n    tag_63:\n      0x00\n      dup3\n      sstore\n      dup1\n      0x1f\n      lt\n      tag_66\n      jumpi\n      pop\n      jump(tag_65)\n    tag_66:\n      0x1f\n      add\n      0x20\n      swap1\n      div\n      swap1\n      0x00\n      mstore\n      keccak256(0x00, 0x20)\n      swap1\n      dup2\n      add\n      swap1\n      tag_67\n      swap2\n      swap1\n      tag_68\n      jump\t// in\n    tag_67:\n    tag_65:\n      pop\n      jump\t// out\n    tag_68:\n    tag_69:\n      dup1\n      dup3\n      gt\n      iszero\n      tag_70\n      jumpi\n      0x00\n      dup2\n      0x00\n      swap1\n      sstore\n      pop\n      0x01\n      add\n      jump(tag_69)\n    tag_70:\n      pop\n      swap1\n      jump\t// out\n        /* \"#utility.yul\":7:82   */\n    tag_71:\n        /* \"#utility.yul\":40:46   */\n      0x00\n        /* \"#utility.yul\":73:75   */\n      0x40\n        /* \"#utility.yul\":67:76   */\n      mload\n        /* \"#utility.yul\":57:76   */\n      swap1\n      pop\n        /* \"#utility.yul\":7:82   */\n      swap1\n      jump\t// out\n        /* \"#utility.yul\":88:205   */\n    tag_72:\n        /* \"#utility.yul\":197:198   */\n      0x00\n        /* \"#utility.yul\":194:195   */\n      dup1\n        /* \"#utility.yul\":187:199   */\n      revert\n        /* \"#utility.yul\":211:328   */\n    tag_73:\n        /* \"#utility.yul\":320:321   */\n      0x00\n        /* \"#utility.yul\":317:318   */\n      dup1\n        /* \"#utility.yul\":310:322   */\n      revert\n        /* \"#utility.yul\":334:460   */\n    tag_74:\n        /* \"#utility.yul\":371:378   */\n      0x00\n        /* \"#utility.yul\":411:453   */\n      0xffffffffffffffffffffffffffffffffffffffff\n        /* \"#utility.yul\":404:409   */\n      dup3\n        /* \"#utility.yul\":400:454   */\n      and\n        /* \"#utility.yul\":389:454   */\n      swap1\n      pop\n        /* \"#utility.yul\":334:460   */\n      swap2\n      swap1\n      pop\n      jump\t// out\n        /* \"#utility.yul\":466:562   */\n    tag_75:\n        /* \"#utility.yul\":503:510   */\n      0x00\n        /* \"#utility.yul\":532:556   */\n      tag_128\n        /* \"#utility.yul\":550:555   */\n      dup3\n        /* \"#utility.yul\":532:556   */\n      tag_74\n      jump\t// in\n    tag_128:\n        /* \"#utility.yul\":521:556   */\n      swap1\n      pop\n        /* \"#utility.yul\":466:562   */\n      swap2\n      swap1\n      pop\n      jump\t// out\n        /* \"#utility.yul\":568:690   */\n    tag_76:\n        /* \"#utility.yul\":641:665   */\n      tag_130\n        /* \"#utility.yul\":659:664   */\n      dup2\n        /* \"#utility.yul\":641:665   */\n      tag_75\n      jump\t// in\n    tag_130:\n        /* \"#utility.yul\":634:639   */\n      dup2\n        /* \"#utility.yul\":631:666   */\n      eq\n        /* \"#utility.yul\":621:684   */\n      tag_131\n      jumpi\n        /* \"#utility.yul\":680:681   */\n      0x00\n        /* \"#utility.yul\":677:678   */\n      dup1\n        /* \"#utility.yul\":670:682   */\n      revert\n        /* \"#utility.yul\":621:684   */\n    tag_131:\n        /* \"#utility.yul\":568:690   */\n      pop\n      jump\t// out\n        /* \"#utility.yul\":696:835   */\n    tag_77:\n        /* \"#utility.yul\":742:747   */\n      0x00\n        /* \"#utility.yul\":780:786   */\n      dup2\n        /* \"#utility.yul\":767:787   */\n      calldataload\n        /* \"#utility.yul\":758:787   */\n      swap1\n      pop\n        /* \"#utility.yul\":796:829   */\n      tag_133\n        /* \"#utility.yul\":823:828   */\n      dup2\n        /* \"#utility.yul\":796:829   */\n      tag_76\n      jump\t// in\n    tag_133:\n        /* \"#utility.yul\":696:835   */\n      swap3\n      swap2\n      pop\n      pop\n      jump\t// out\n        /* \"#utility.yul\":841:1170   */\n    tag_10:\n        /* \"#utility.yul\":900:906   */\n      0x00\n        /* \"#utility.yul\":949:951   */\n      0x20\n        /* \"#utility.yul\":937:946   */\n      dup3\n        /* \"#utility.yul\":928:935   */\n      dup5\n        /* \"#utility.yul\":924:947   */\n      sub\n        /* \"#utility.yul\":920:952   */\n      slt\n        /* \"#utility.yul\":917:1036   */\n      iszero\n      tag_135\n      jumpi\n        /* \"#utility.yul\":955:1034   */\n      tag_136\n      tag_72\n      jump\t// in\n    tag_136:\n        /* \"#utility.yul\":917:1036   */\n    tag_135:\n        /* \"#utility.yul\":1075:1076   */\n      0x00\n        /* \"#utility.yul\":1100:1153   */\n      tag_137\n        /* \"#utility.yul\":1145:1152   */\n      dup5\n        /* \"#utility.yul\":1136:1142   */\n      dup3\n        /* \"#utility.yul\":1125:1134   */\n      dup6\n        /* \"#utility.yul\":1121:1143   */\n      add\n        /* \"#utility.yul\":1100:1153   */\n      tag_77\n      jump\t// in\n    tag_137:\n        /* \"#utility.yul\":1090:1153   */\n      swap2\n      pop\n        /* \"#utility.yul\":1046:1163   */\n      pop\n        /* \"#utility.yul\":841:1170   */\n      swap3\n      swap2\n      pop\n      pop\n      jump\t// out\n        /* \"#utility.yul\":1176:1266   */\n    tag_78:\n        /* \"#utility.yul\":1210:1217   */\n      0x00\n        /* \"#utility.yul\":1253:1258   */\n      dup2\n        /* \"#utility.yul\":1246:1259   */\n      iszero\n        /* \"#utility.yul\":1239:1260   */\n      iszero\n        /* \"#utility.yul\":1228:1260   */\n      swap1\n      pop\n        /* \"#utility.yul\":1176:1266   */\n      swap2\n      swap1\n      pop\n      jump\t// out\n        /* \"#utility.yul\":1272:1381   */\n    tag_79:\n        /* \"#utility.yul\":1353:1374   */\n      tag_140\n        /* \"#utility.yul\":1368:1373   */\n      dup2\n        /* \"#utility.yul\":1353:1374   */\n      tag_78\n      jump\t// in\n    tag_140:\n        /* \"#utility.yul\":1348:1351   */\n      dup3\n        /* \"#utility.yul\":1341:1375   */\n      mstore\n        /* \"#utility.yul\":1272:1381   */\n      pop\n      pop\n      jump\t// out\n        /* \"#utility.yul\":1387:1505   */\n    tag_80:\n        /* \"#utility.yul\":1474:1498   */\n      tag_142\n        /* \"#utility.yul\":1492:1497   */\n      dup2\n        /* \"#utility.yul\":1474:1498   */\n      tag_75\n      jump\t// in\n    tag_142:\n        /* \"#utility.yul\":1469:1472   */\n      dup3\n        /* \"#utility.yul\":1462:1499   */\n      mstore\n        /* \"#utility.yul\":1387:1505   */\n      pop\n      pop\n      jump\t// out\n        /* \"#utility.yul\":1511:1588   */\n    tag_81:\n        /* \"#utility.yul\":1548:1555   */\n      0x00\n        /* \"#utility.yul\":1577:1582   */\n      dup2\n        /* \"#utility.yul\":1566:1582   */\n      swap1\n      pop\n        /* \"#utility.yul\":1511:1588   */\n      swap2\n      swap1\n      pop\n      jump\t// out\n        /* \"#utility.yul\":1594:1712   */\n    tag_82:\n        /* \"#utility.yul\":1681:1705   */\n      tag_145\n        /* \"#utility.yul\":1699:1704   */\n      dup2\n        /* \"#utility.yul\":1681:1705   */\n      tag_81\n      jump\t// in\n    tag_145:\n        /* \"#utility.yul\":1676:1679   */\n      dup3\n        /* \"#utility.yul\":1669:1706   */\n      mstore\n        /* \"#utility.yul\":1594:1712   */\n      pop\n      pop\n      jump\t// out\n        /* \"#utility.yul\":1718:2148   */\n    tag_13:\n        /* \"#utility.yul\":1861:1865   */\n      0x00\n        /* \"#utility.yul\":1899:1901   */\n      0x60\n        /* \"#utility.yul\":1888:1897   */\n      dup3\n        /* \"#utility.yul\":1884:1902   */\n      add\n        /* \"#utility.yul\":1876:1902   */\n      swap1\n      pop\n        /* \"#utility.yul\":1912:1977   */\n      tag_147\n        /* \"#utility.yul\":1974:1975   */\n      0x00\n        /* \"#utility.yul\":1963:1972   */\n      dup4\n        /* \"#utility.yul\":1959:1976   */\n      add\n        /* \"#utility.yul\":1950:1956   */\n      dup7\n        /* \"#utility.yul\":1912:1977   */\n      tag_79\n      jump\t// in\n    tag_147:\n        /* \"#utility.yul\":1987:2059   */\n      tag_148\n        /* \"#utility.yul\":2055:2057   */\n      0x20\n        /* \"#utility.yul\":2044:2053   */\n      dup4\n        /* \"#utility.yul\":2040:2058   */\n      add\n        /* \"#utility.yul\":2031:2037   */\n      dup6\n        /* \"#utility.yul\":1987:2059   */\n      tag_80\n      jump\t// in\n    tag_148:\n        /* \"#utility.yul\":2069:2141   */\n      tag_149\n        /* \"#utility.yul\":2137:2139   */\n      0x40\n        /* \"#utility.yul\":2126:2135   */\n      dup4\n        /* \"#utility.yul\":2122:2140   */\n      add\n        /* \"#utility.yul\":2113:2119   */\n      dup5\n        /* \"#utility.yul\":2069:2141   */\n      tag_82\n      jump\t// in\n    tag_149:\n        /* \"#utility.yul\":1718:2148   */\n      swap5\n      swap4\n      pop\n      pop\n      pop\n      pop\n      jump\t// out\n        /* \"#utility.yul\":2154:2276   */\n    tag_83:\n        /* \"#utility.yul\":2227:2251   */\n      tag_151\n        /* \"#utility.yul\":2245:2250   */\n      dup2\n        /* \"#utility.yul\":2227:2251   */\n      tag_81\n      jump\t// in\n    tag_151:\n        /* \"#utility.yul\":2220:2225   */\n      dup2\n        /* \"#utility.yul\":2217:2252   */\n      eq\n        /* \"#utility.yul\":2207:2270   */\n      tag_152\n      jumpi\n        /* \"#utility.yul\":2266:2267   */\n      0x00\n        /* \"#utility.yul\":2263:2264   */\n      dup1\n        /* \"#utility.yul\":2256:2268   */\n      revert\n        /* \"#utility.yul\":2207:2270   */\n    tag_152:\n        /* \"#utility.yul\":2154:2276   */\n      pop\n      jump\t// out\n        /* \"#utility.yul\":2282:2421   */\n    tag_84:\n        /* \"#utility.yul\":2328:2333   */\n      0x00\n        /* \"#utility.yul\":2366:2372   */\n      dup2\n        /* \"#utility.yul\":2353:2373   */\n      calldataload\n        /* \"#utility.yul\":2344:2373   */\n      swap1\n      pop\n        /* \"#utility.yul\":2382:2415   */\n      tag_154\n        /* \"#utility.yul\":2409:2414   */\n      dup2\n        /* \"#utility.yul\":2382:2415   */\n      tag_83\n      jump\t// in\n    tag_154:\n        /* \"#utility.yul\":2282:2421   */\n      swap3\n      swap2\n      pop\n      pop\n      jump\t// out\n        /* \"#utility.yul\":2427:2756   */\n    tag_16:\n        /* \"#utility.yul\":2486:2492   */\n      0x00\n        /* \"#utility.yul\":2535:2537   */\n      0x20\n        /* \"#utility.yul\":2523:2532   */\n      dup3\n        /* \"#utility.yul\":2514:2521   */\n      dup5\n        /* \"#utility.yul\":2510:2533   */\n      sub\n        /* \"#utility.yul\":2506:2538   */\n      slt\n        /* \"#utility.yul\":2503:2622   */\n      iszero\n      tag_156\n      jumpi\n        /* \"#utility.yul\":2541:2620   */\n      tag_157\n      tag_72\n      jump\t// in\n    tag_157:\n        /* \"#utility.yul\":2503:2622   */\n    tag_156:\n        /* \"#utility.yul\":2661:2662   */\n      0x00\n        /* \"#utility.yul\":2686:2739   */\n      tag_158\n        /* \"#utility.yul\":2731:2738   */\n      dup5\n        /* \"#utility.yul\":2722:2728   */\n      dup3\n        /* \"#utility.yul\":2711:2720   */\n      dup6\n        /* \"#utility.yul\":2707:2729   */\n      add\n        /* \"#utility.yul\":2686:2739   */\n      tag_84\n      jump\t// in\n    tag_158:\n        /* \"#utility.yul\":2676:2739   */\n      swap2\n      pop\n        /* \"#utility.yul\":2632:2749   */\n      pop\n        /* \"#utility.yul\":2427:2756   */\n      swap3\n      swap2\n      pop\n      pop\n      jump\t// out\n        /* \"#utility.yul\":2762:2879   */\n    tag_85:\n        /* \"#utility.yul\":2871:2872   */\n      0x00\n        /* \"#utility.yul\":2868:2869   */\n      dup1\n        /* \"#utility.yul\":2861:2873   */\n      revert\n        /* \"#utility.yul\":2885:2987   */\n    tag_86:\n        /* \"#utility.yul\":2926:2932   */\n      0x00\n        /* \"#utility.yul\":2977:2979   */\n      0x1f\n        /* \"#utility.yul\":2973:2980   */\n      not\n        /* \"#utility.yul\":2968:2970   */\n      0x1f\n        /* \"#utility.yul\":2961:2966   */\n      dup4\n        /* \"#utility.yul\":2957:2971   */\n      add\n        /* \"#utility.yul\":2953:2981   */\n      and\n        /* \"#utility.yul\":2943:2981   */\n      swap1\n      pop\n        /* \"#utility.yul\":2885:2987   */\n      swap2\n      swap1\n      pop\n      jump\t// out\n        /* \"#utility.yul\":2993:3173   */\n    tag_87:\n        /* \"#utility.yul\":3041:3118   */\n      0x4e487b7100000000000000000000000000000000000000000000000000000000\n        /* \"#utility.yul\":3038:3039   */\n      0x00\n        /* \"#utility.yul\":3031:3119   */\n      mstore\n        /* \"#utility.yul\":3138:3142   */\n      0x41\n        /* \"#utility.yul\":3135:3136   */\n      0x04\n        /* \"#utility.yul\":3128:3143   */\n      mstore\n        /* \"#utility.yul\":3162:3166   */\n      0x24\n        /* \"#utility.yul\":3159:3160   */\n      0x00\n        /* \"#utility.yul\":3152:3167   */\n      revert\n        /* \"#utility.yul\":3179:3460   */\n    tag_88:\n        /* \"#utility.yul\":3262:3289   */\n      tag_163\n        /* \"#utility.yul\":3284:3288   */\n      dup3\n        /* \"#utility.yul\":3262:3289   */\n      tag_86\n      jump\t// in\n    tag_163:\n        /* \"#utility.yul\":3254:3260   */\n      dup2\n        /* \"#utility.yul\":3250:3290   */\n      add\n        /* \"#utility.yul\":3392:3398   */\n      dup2\n        /* \"#utility.yul\":3380:3390   */\n      dup2\n        /* \"#utility.yul\":3377:3399   */\n      lt\n        /* \"#utility.yul\":3356:3374   */\n      0xffffffffffffffff\n        /* \"#utility.yul\":3344:3354   */\n      dup3\n        /* \"#utility.yul\":3341:3375   */\n      gt\n        /* \"#utility.yul\":3338:3400   */\n      or\n        /* \"#utility.yul\":3335:3423   */\n      iszero\n      tag_164\n      jumpi\n        /* \"#utility.yul\":3403:3421   */\n      tag_165\n      tag_87\n      jump\t// in\n    tag_165:\n        /* \"#utility.yul\":3335:3423   */\n    tag_164:\n        /* \"#utility.yul\":3443:3453   */\n      dup1\n        /* \"#utility.yul\":3439:3441   */\n      0x40\n        /* \"#utility.yul\":3432:3454   */\n      mstore\n        /* \"#utility.yul\":3222:3460   */\n      pop\n        /* \"#utility.yul\":3179:3460   */\n      pop\n      pop\n      jump\t// out\n        /* \"#utility.yul\":3466:3595   */\n    tag_89:\n        /* \"#utility.yul\":3500:3506   */\n      0x00\n        /* \"#utility.yul\":3527:3547   */\n      tag_167\n      tag_71\n      jump\t// in\n    tag_167:\n        /* \"#utility.yul\":3517:3547   */\n      swap1\n      pop\n        /* \"#utility.yul\":3556:3589   */\n      tag_168\n        /* \"#utility.yul\":3584:3588   */\n      dup3\n        /* \"#utility.yul\":3576:3582   */\n      dup3\n        /* \"#utility.yul\":3556:3589   */\n      tag_88\n      jump\t// in\n    tag_168:\n        /* \"#utility.yul\":3466:3595   */\n      swap2\n      swap1\n      pop\n      jump\t// out\n        /* \"#utility.yul\":3601:3922   */\n    tag_90:\n        /* \"#utility.yul\":3688:3692   */\n      0x00\n        /* \"#utility.yul\":3778:3796   */\n      0xffffffffffffffff\n        /* \"#utility.yul\":3770:3776   */\n      dup3\n        /* \"#utility.yul\":3767:3797   */\n      gt\n        /* \"#utility.yul\":3764:3820   */\n      iszero\n      tag_170\n      jumpi\n        /* \"#utility.yul\":3800:3818   */\n      tag_171\n      tag_87\n      jump\t// in\n    tag_171:\n        /* \"#utility.yul\":3764:3820   */\n    tag_170:\n        /* \"#utility.yul\":3850:3854   */\n      0x20\n        /* \"#utility.yul\":3842:3848   */\n      dup3\n        /* \"#utility.yul\":3838:3855   */\n      mul\n        /* \"#utility.yul\":3830:3855   */\n      swap1\n      pop\n        /* \"#utility.yul\":3910:3914   */\n      0x20\n        /* \"#utility.yul\":3904:3908   */\n      dup2\n        /* \"#utility.yul\":3900:3915   */\n      add\n        /* \"#utility.yul\":3892:3915   */\n      swap1\n      pop\n        /* \"#utility.yul\":3601:3922   */\n      swap2\n      swap1\n      pop\n      jump\t// out\n        /* \"#utility.yul\":3928:4045   */\n    tag_91:\n        /* \"#utility.yul\":4037:4038   */\n      0x00\n        /* \"#utility.yul\":4034:4035   */\n      dup1\n        /* \"#utility.yul\":4027:4039   */\n      revert\n        /* \"#utility.yul\":4051:4168   */\n    tag_92:\n        /* \"#utility.yul\":4160:4161   */\n      0x00\n        /* \"#utility.yul\":4157:4158   */\n      dup1\n        /* \"#utility.yul\":4150:4162   */\n      revert\n        /* \"#utility.yul\":4174:4482   */\n    tag_93:\n        /* \"#utility.yul\":4236:4240   */\n      0x00\n        /* \"#utility.yul\":4326:4344   */\n      0xffffffffffffffff\n        /* \"#utility.yul\":4318:4324   */\n      dup3\n        /* \"#utility.yul\":4315:4345   */\n      gt\n        /* \"#utility.yul\":4312:4368   */\n      iszero\n      tag_175\n      jumpi\n        /* \"#utility.yul\":4348:4366   */\n      tag_176\n      tag_87\n      jump\t// in\n    tag_176:\n        /* \"#utility.yul\":4312:4368   */\n    tag_175:\n        /* \"#utility.yul\":4386:4415   */\n      tag_177\n        /* \"#utility.yul\":4408:4414   */\n      dup3\n        /* \"#utility.yul\":4386:4415   */\n      tag_86\n      jump\t// in\n    tag_177:\n        /* \"#utility.yul\":4378:4415   */\n      swap1\n      pop\n        /* \"#utility.yul\":4470:4474   */\n      0x20\n        /* \"#utility.yul\":4464:4468   */\n      dup2\n        /* \"#utility.yul\":4460:4475   */\n      add\n        /* \"#utility.yul\":4452:4475   */\n      swap1\n      pop\n        /* \"#utility.yul\":4174:4482   */\n      swap2\n      swap1\n      pop\n      jump\t// out\n        /* \"#utility.yul\":4488:4634   */\n    tag_94:\n        /* \"#utility.yul\":4585:4591   */\n      dup3\n        /* \"#utility.yul\":4580:4583   */\n      dup2\n        /* \"#utility.yul\":4575:4578   */\n      dup4\n        /* \"#utility.yul\":4562:4592   */\n      calldatacopy\n        /* \"#utility.yul\":4626:4627   */\n      0x00\n        /* \"#utility.yul\":4617:4623   */\n      dup4\n        /* \"#utility.yul\":4612:4615   */\n      dup4\n        /* \"#utility.yul\":4608:4624   */\n      add\n        /* \"#utility.yul\":4601:4628   */\n      mstore\n        /* \"#utility.yul\":4488:4634   */\n      pop\n      pop\n      pop\n      jump\t// out\n        /* \"#utility.yul\":4640:5065   */\n    tag_95:\n        /* \"#utility.yul\":4718:4723   */\n      0x00\n        /* \"#utility.yul\":4743:4809   */\n      tag_180\n        /* \"#utility.yul\":4759:4808   */\n      tag_181\n        /* \"#utility.yul\":4801:4807   */\n      dup5\n        /* \"#utility.yul\":4759:4808   */\n      tag_93\n      jump\t// in\n    tag_181:\n        /* \"#utility.yul\":4743:4809   */\n      tag_89\n      jump\t// in\n    tag_180:\n        /* \"#utility.yul\":4734:4809   */\n      swap1\n      pop\n        /* \"#utility.yul\":4832:4838   */\n      dup3\n        /* \"#utility.yul\":4825:4830   */\n      dup2\n        /* \"#utility.yul\":4818:4839   */\n      mstore\n        /* \"#utility.yul\":4870:4874   */\n      0x20\n        /* \"#utility.yul\":4863:4868   */\n      dup2\n        /* \"#utility.yul\":4859:4875   */\n      add\n        /* \"#utility.yul\":4908:4911   */\n      dup5\n        /* \"#utility.yul\":4899:4905   */\n      dup5\n        /* \"#utility.yul\":4894:4897   */\n      dup5\n        /* \"#utility.yul\":4890:4906   */\n      add\n        /* \"#utility.yul\":4887:4912   */\n      gt\n        /* \"#utility.yul\":4884:4996   */\n      iszero\n      tag_182\n      jumpi\n        /* \"#utility.yul\":4915:4994   */\n      tag_183\n      tag_92\n      jump\t// in\n    tag_183:\n        /* \"#utility.yul\":4884:4996   */\n    tag_182:\n        /* \"#utility.yul\":5005:5059   */\n      tag_184\n        /* \"#utility.yul\":5052:5058   */\n      dup5\n        /* \"#utility.yul\":5047:5050   */\n      dup3\n        /* \"#utility.yul\":5042:5045   */\n      dup6\n        /* \"#utility.yul\":5005:5059   */\n      tag_94\n      jump\t// in\n    tag_184:\n        /* \"#utility.yul\":4724:5065   */\n      pop\n        /* \"#utility.yul\":4640:5065   */\n      swap4\n      swap3\n      pop\n      pop\n      pop\n      jump\t// out\n        /* \"#utility.yul\":5085:5425   */\n    tag_96:\n        /* \"#utility.yul\":5141:5146   */\n      0x00\n        /* \"#utility.yul\":5190:5193   */\n      dup3\n        /* \"#utility.yul\":5183:5187   */\n      0x1f\n        /* \"#utility.yul\":5175:5181   */\n      dup4\n        /* \"#utility.yul\":5171:5188   */\n      add\n        /* \"#utility.yul\":5167:5194   */\n      slt\n        /* \"#utility.yul\":5157:5279   */\n      tag_186\n      jumpi\n        /* \"#utility.yul\":5198:5277   */\n      tag_187\n      tag_85\n      jump\t// in\n    tag_187:\n        /* \"#utility.yul\":5157:5279   */\n    tag_186:\n        /* \"#utility.yul\":5315:5321   */\n      dup2\n        /* \"#utility.yul\":5302:5322   */\n      calldataload\n        /* \"#utility.yul\":5340:5419   */\n      tag_188\n        /* \"#utility.yul\":5415:5418   */\n      dup5\n        /* \"#utility.yul\":5407:5413   */\n      dup3\n        /* \"#utility.yul\":5400:5404   */\n      0x20\n        /* \"#utility.yul\":5392:5398   */\n      dup7\n        /* \"#utility.yul\":5388:5405   */\n      add\n        /* \"#utility.yul\":5340:5419   */\n      tag_95\n      jump\t// in\n    tag_188:\n        /* \"#utility.yul\":5331:5419   */\n      swap2\n      pop\n        /* \"#utility.yul\":5147:5425   */\n      pop\n        /* \"#utility.yul\":5085:5425   */\n      swap3\n      swap2\n      pop\n      pop\n      jump\t// out\n        /* \"#utility.yul\":5447:6392   */\n    tag_97:\n        /* \"#utility.yul\":5553:5558   */\n      0x00\n        /* \"#utility.yul\":5578:5669   */\n      tag_190\n        /* \"#utility.yul\":5594:5668   */\n      tag_191\n        /* \"#utility.yul\":5661:5667   */\n      dup5\n        /* \"#utility.yul\":5594:5668   */\n      tag_90\n      jump\t// in\n    tag_191:\n        /* \"#utility.yul\":5578:5669   */\n      tag_89\n      jump\t// in\n    tag_190:\n        /* \"#utility.yul\":5569:5669   */\n      swap1\n      pop\n        /* \"#utility.yul\":5689:5694   */\n      dup1\n        /* \"#utility.yul\":5718:5724   */\n      dup4\n        /* \"#utility.yul\":5711:5716   */\n      dup3\n        /* \"#utility.yul\":5704:5725   */\n      mstore\n        /* \"#utility.yul\":5752:5756   */\n      0x20\n        /* \"#utility.yul\":5745:5750   */\n      dup3\n        /* \"#utility.yul\":5741:5757   */\n      add\n        /* \"#utility.yul\":5734:5757   */\n      swap1\n      pop\n        /* \"#utility.yul\":5805:5809   */\n      0x20\n        /* \"#utility.yul\":5797:5803   */\n      dup5\n        /* \"#utility.yul\":5793:5810   */\n      mul\n        /* \"#utility.yul\":5785:5791   */\n      dup4\n        /* \"#utility.yul\":5781:5811   */\n      add\n        /* \"#utility.yul\":5834:5837   */\n      dup6\n        /* \"#utility.yul\":5826:5832   */\n      dup2\n        /* \"#utility.yul\":5823:5838   */\n      gt\n        /* \"#utility.yul\":5820:5942   */\n      iszero\n      tag_192\n      jumpi\n        /* \"#utility.yul\":5853:5932   */\n      tag_193\n      tag_91\n      jump\t// in\n    tag_193:\n        /* \"#utility.yul\":5820:5942   */\n    tag_192:\n        /* \"#utility.yul\":5968:5974   */\n      dup4\n        /* \"#utility.yul\":5951:6386   */\n    tag_194:\n        /* \"#utility.yul\":5985:5991   */\n      dup2\n        /* \"#utility.yul\":5980:5983   */\n      dup2\n        /* \"#utility.yul\":5977:5992   */\n      lt\n        /* \"#utility.yul\":5951:6386   */\n      iszero\n      tag_196\n      jumpi\n        /* \"#utility.yul\":6074:6077   */\n      dup1\n        /* \"#utility.yul\":6061:6078   */\n      calldataload\n        /* \"#utility.yul\":6110:6128   */\n      0xffffffffffffffff\n        /* \"#utility.yul\":6097:6108   */\n      dup2\n        /* \"#utility.yul\":6094:6129   */\n      gt\n        /* \"#utility.yul\":6091:6213   */\n      iszero\n      tag_197\n      jumpi\n        /* \"#utility.yul\":6132:6211   */\n      tag_198\n      tag_85\n      jump\t// in\n    tag_198:\n        /* \"#utility.yul\":6091:6213   */\n    tag_197:\n        /* \"#utility.yul\":6256:6267   */\n      dup1\n        /* \"#utility.yul\":6248:6254   */\n      dup7\n        /* \"#utility.yul\":6244:6268   */\n      add\n        /* \"#utility.yul\":6294:6341   */\n      tag_199\n        /* \"#utility.yul\":6337:6340   */\n      dup10\n        /* \"#utility.yul\":6325:6335   */\n      dup3\n        /* \"#utility.yul\":6294:6341   */\n      tag_96\n      jump\t// in\n    tag_199:\n        /* \"#utility.yul\":6289:6292   */\n      dup6\n        /* \"#utility.yul\":6282:6342   */\n      mstore\n        /* \"#utility.yul\":6371:6375   */\n      0x20\n        /* \"#utility.yul\":6366:6369   */\n      dup6\n        /* \"#utility.yul\":6362:6376   */\n      add\n        /* \"#utility.yul\":6355:6376   */\n      swap5\n      pop\n        /* \"#utility.yul\":6027:6386   */\n      pop\n      pop\n        /* \"#utility.yul\":6011:6015   */\n      0x20\n        /* \"#utility.yul\":6006:6009   */\n      dup2\n        /* \"#utility.yul\":6002:6016   */\n      add\n        /* \"#utility.yul\":5995:6016   */\n      swap1\n      pop\n        /* \"#utility.yul\":5951:6386   */\n      jump(tag_194)\n    tag_196:\n        /* \"#utility.yul\":5955:5976   */\n      pop\n        /* \"#utility.yul\":5559:6392   */\n      pop\n      pop\n        /* \"#utility.yul\":5447:6392   */\n      swap4\n      swap3\n      pop\n      pop\n      pop\n      jump\t// out\n        /* \"#utility.yul\":6414:6804   */\n    tag_98:\n        /* \"#utility.yul\":6495:6500   */\n      0x00\n        /* \"#utility.yul\":6544:6547   */\n      dup3\n        /* \"#utility.yul\":6537:6541   */\n      0x1f\n        /* \"#utility.yul\":6529:6535   */\n      dup4\n        /* \"#utility.yul\":6525:6542   */\n      add\n        /* \"#utility.yul\":6521:6548   */\n      slt\n        /* \"#utility.yul\":6511:6633   */\n      tag_201\n      jumpi\n        /* \"#utility.yul\":6552:6631   */\n      tag_202\n      tag_85\n      jump\t// in\n    tag_202:\n        /* \"#utility.yul\":6511:6633   */\n    tag_201:\n        /* \"#utility.yul\":6669:6675   */\n      dup2\n        /* \"#utility.yul\":6656:6676   */\n      calldataload\n        /* \"#utility.yul\":6694:6798   */\n      tag_203\n        /* \"#utility.yul\":6794:6797   */\n      dup5\n        /* \"#utility.yul\":6786:6792   */\n      dup3\n        /* \"#utility.yul\":6779:6783   */\n      0x20\n        /* \"#utility.yul\":6771:6777   */\n      dup7\n        /* \"#utility.yul\":6767:6784   */\n      add\n        /* \"#utility.yul\":6694:6798   */\n      tag_97\n      jump\t// in\n    tag_203:\n        /* \"#utility.yul\":6685:6798   */\n      swap2\n      pop\n        /* \"#utility.yul\":6501:6804   */\n      pop\n        /* \"#utility.yul\":6414:6804   */\n      swap3\n      swap2\n      pop\n      pop\n      jump\t// out\n        /* \"#utility.yul\":6810:7369   */\n    tag_22:\n        /* \"#utility.yul\":6904:6910   */\n      0x00\n        /* \"#utility.yul\":6953:6955   */\n      0x20\n        /* \"#utility.yul\":6941:6950   */\n      dup3\n        /* \"#utility.yul\":6932:6939   */\n      dup5\n        /* \"#utility.yul\":6928:6951   */\n      sub\n        /* \"#utility.yul\":6924:6956   */\n      slt\n        /* \"#utility.yul\":6921:7040   */\n      iszero\n      tag_205\n      jumpi\n        /* \"#utility.yul\":6959:7038   */\n      tag_206\n      tag_72\n      jump\t// in\n    tag_206:\n        /* \"#utility.yul\":6921:7040   */\n    tag_205:\n        /* \"#utility.yul\":7107:7108   */\n      0x00\n        /* \"#utility.yul\":7096:7105   */\n      dup3\n        /* \"#utility.yul\":7092:7109   */\n      add\n        /* \"#utility.yul\":7079:7110   */\n      calldataload\n        /* \"#utility.yul\":7137:7155   */\n      0xffffffffffffffff\n        /* \"#utility.yul\":7129:7135   */\n      dup2\n        /* \"#utility.yul\":7126:7156   */\n      gt\n        /* \"#utility.yul\":7123:7240   */\n      iszero\n      tag_207\n      jumpi\n        /* \"#utility.yul\":7159:7238   */\n      tag_208\n      tag_73\n      jump\t// in\n    tag_208:\n        /* \"#utility.yul\":7123:7240   */\n    tag_207:\n        /* \"#utility.yul\":7264:7352   */\n      tag_209\n        /* \"#utility.yul\":7344:7351   */\n      dup5\n        /* \"#utility.yul\":7335:7341   */\n      dup3\n        /* \"#utility.yul\":7324:7333   */\n      dup6\n        /* \"#utility.yul\":7320:7342   */\n      add\n        /* \"#utility.yul\":7264:7352   */\n      tag_98\n      jump\t// in\n    tag_209:\n        /* \"#utility.yul\":7254:7352   */\n      swap2\n      pop\n        /* \"#utility.yul\":7050:7362   */\n      pop\n        /* \"#utility.yul\":6810:7369   */\n      swap3\n      swap2\n      pop\n      pop\n      jump\t// out\n        /* \"#utility.yul\":7375:8029   */\n    tag_26:\n        /* \"#utility.yul\":7453:7459   */\n      0x00\n        /* \"#utility.yul\":7461:7467   */\n      dup1\n        /* \"#utility.yul\":7510:7512   */\n      0x40\n        /* \"#utility.yul\":7498:7507   */\n      dup4\n        /* \"#utility.yul\":7489:7496   */\n      dup6\n        /* \"#utility.yul\":7485:7508   */\n      sub\n        /* \"#utility.yul\":7481:7513   */\n      slt\n        /* \"#utility.yul\":7478:7597   */\n      iszero\n      tag_211\n      jumpi\n        /* \"#utility.yul\":7516:7595   */\n      tag_212\n      tag_72\n      jump\t// in\n    tag_212:\n        /* \"#utility.yul\":7478:7597   */\n    tag_211:\n        /* \"#utility.yul\":7636:7637   */\n      0x00\n        /* \"#utility.yul\":7661:7714   */\n      tag_213\n        /* \"#utility.yul\":7706:7713   */\n      dup6\n        /* \"#utility.yul\":7697:7703   */\n      dup3\n        /* \"#utility.yul\":7686:7695   */\n      dup7\n        /* \"#utility.yul\":7682:7704   */\n      add\n        /* \"#utility.yul\":7661:7714   */\n      tag_77\n      jump\t// in\n    tag_213:\n        /* \"#utility.yul\":7651:7714   */\n      swap3\n      pop\n        /* \"#utility.yul\":7607:7724   */\n      pop\n        /* \"#utility.yul\":7791:7793   */\n      0x20\n        /* \"#utility.yul\":7780:7789   */\n      dup4\n        /* \"#utility.yul\":7776:7794   */\n      add\n        /* \"#utility.yul\":7763:7795   */\n      calldataload\n        /* \"#utility.yul\":7822:7840   */\n      0xffffffffffffffff\n        /* \"#utility.yul\":7814:7820   */\n      dup2\n        /* \"#utility.yul\":7811:7841   */\n      gt\n        /* \"#utility.yul\":7808:7925   */\n      iszero\n      tag_214\n      jumpi\n        /* \"#utility.yul\":7844:7923   */\n      tag_215\n      tag_73\n      jump\t// in\n    tag_215:\n        /* \"#utility.yul\":7808:7925   */\n    tag_214:\n        /* \"#utility.yul\":7949:8012   */\n      tag_216\n        /* \"#utility.yul\":8004:8011   */\n      dup6\n        /* \"#utility.yul\":7995:8001   */\n      dup3\n        /* \"#utility.yul\":7984:7993   */\n      dup7\n        /* \"#utility.yul\":7980:8002   */\n      add\n        /* \"#utility.yul\":7949:8012   */\n      tag_96\n      jump\t// in\n    tag_216:\n        /* \"#utility.yul\":7939:8012   */\n      swap2\n      pop\n        /* \"#utility.yul\":7734:8022   */\n      pop\n        /* \"#utility.yul\":7375:8029   */\n      swap3\n      pop\n      swap3\n      swap1\n      pop\n      jump\t// out\n        /* \"#utility.yul\":8035:8204   */\n    tag_99:\n        /* \"#utility.yul\":8119:8130   */\n      0x00\n        /* \"#utility.yul\":8153:8159   */\n      dup3\n        /* \"#utility.yul\":8148:8151   */\n      dup3\n        /* \"#utility.yul\":8141:8160   */\n      mstore\n        /* \"#utility.yul\":8193:8197   */\n      0x20\n        /* \"#utility.yul\":8188:8191   */\n      dup3\n        /* \"#utility.yul\":8184:8198   */\n      add\n        /* \"#utility.yul\":8169:8198   */\n      swap1\n      pop\n        /* \"#utility.yul\":8035:8204   */\n      swap3\n      swap2\n      pop\n      pop\n      jump\t// out\n        /* \"#utility.yul\":8210:8381   */\n    tag_100:\n        /* \"#utility.yul\":8350:8373   */\n      0x53657373696f6e206973206e6f74206163746976650000000000000000000000\n        /* \"#utility.yul\":8346:8347   */\n      0x00\n        /* \"#utility.yul\":8338:8344   */\n      dup3\n        /* \"#utility.yul\":8334:8348   */\n      add\n        /* \"#utility.yul\":8327:8374   */\n      mstore\n        /* \"#utility.yul\":8210:8381   */\n      pop\n      jump\t// out\n        /* \"#utility.yul\":8387:8753   */\n    tag_101:\n        /* \"#utility.yul\":8529:8532   */\n      0x00\n        /* \"#utility.yul\":8550:8617   */\n      tag_220\n        /* \"#utility.yul\":8614:8616   */\n      0x15\n        /* \"#utility.yul\":8609:8612   */\n      dup4\n        /* \"#utility.yul\":8550:8617   */\n      tag_99\n      jump\t// in\n    tag_220:\n        /* \"#utility.yul\":8543:8617   */\n      swap2\n      pop\n        /* \"#utility.yul\":8626:8719   */\n      tag_221\n        /* \"#utility.yul\":8715:8718   */\n      dup3\n        /* \"#utility.yul\":8626:8719   */\n      tag_100\n      jump\t// in\n    tag_221:\n        /* \"#utility.yul\":8744:8746   */\n      0x20\n        /* \"#utility.yul\":8739:8742   */\n      dup3\n        /* \"#utility.yul\":8735:8747   */\n      add\n        /* \"#utility.yul\":8728:8747   */\n      swap1\n      pop\n        /* \"#utility.yul\":8387:8753   */\n      swap2\n      swap1\n      pop\n      jump\t// out\n        /* \"#utility.yul\":8759:9178   */\n    tag_31:\n        /* \"#utility.yul\":8925:8929   */\n      0x00\n        /* \"#utility.yul\":8963:8965   */\n      0x20\n        /* \"#utility.yul\":8952:8961   */\n      dup3\n        /* \"#utility.yul\":8948:8966   */\n      add\n        /* \"#utility.yul\":8940:8966   */\n      swap1\n      pop\n        /* \"#utility.yul\":9012:9021   */\n      dup2\n        /* \"#utility.yul\":9006:9010   */\n      dup2\n        /* \"#utility.yul\":9002:9022   */\n      sub\n        /* \"#utility.yul\":8998:8999   */\n      0x00\n        /* \"#utility.yul\":8987:8996   */\n      dup4\n        /* \"#utility.yul\":8983:9000   */\n      add\n        /* \"#utility.yul\":8976:9023   */\n      mstore\n        /* \"#utility.yul\":9040:9171   */\n      tag_223\n        /* \"#utility.yul\":9166:9170   */\n      dup2\n        /* \"#utility.yul\":9040:9171   */\n      tag_101\n      jump\t// in\n    tag_223:\n        /* \"#utility.yul\":9032:9171   */\n      swap1\n      pop\n        /* \"#utility.yul\":8759:9178   */\n      swap2\n      swap1\n      pop\n      jump\t// out\n        /* \"#utility.yul\":9184:9516   */\n    tag_33:\n        /* \"#utility.yul\":9305:9309   */\n      0x00\n        /* \"#utility.yul\":9343:9345   */\n      0x40\n        /* \"#utility.yul\":9332:9341   */\n      dup3\n        /* \"#utility.yul\":9328:9346   */\n      add\n        /* \"#utility.yul\":9320:9346   */\n      swap1\n      pop\n        /* \"#utility.yul\":9356:9427   */\n      tag_225\n        /* \"#utility.yul\":9424:9425   */\n      0x00\n        /* \"#utility.yul\":9413:9422   */\n      dup4\n        /* \"#utility.yul\":9409:9426   */\n      add\n        /* \"#utility.yul\":9400:9406   */\n      dup6\n        /* \"#utility.yul\":9356:9427   */\n      tag_82\n      jump\t// in\n    tag_225:\n        /* \"#utility.yul\":9437:9509   */\n      tag_226\n        /* \"#utility.yul\":9505:9507   */\n      0x20\n        /* \"#utility.yul\":9494:9503   */\n      dup4\n        /* \"#utility.yul\":9490:9508   */\n      add\n        /* \"#utility.yul\":9481:9487   */\n      dup5\n        /* \"#utility.yul\":9437:9509   */\n      tag_82\n      jump\t// in\n    tag_226:\n        /* \"#utility.yul\":9184:9516   */\n      swap4\n      swap3\n      pop\n      pop\n      pop\n      jump\t// out\n        /* \"#utility.yul\":9522:9744   */\n    tag_36:\n        /* \"#utility.yul\":9615:9619   */\n      0x00\n        /* \"#utility.yul\":9653:9655   */\n      0x20\n        /* \"#utility.yul\":9642:9651   */\n      dup3\n        /* \"#utility.yul\":9638:9656   */\n      add\n        /* \"#utility.yul\":9630:9656   */\n      swap1\n      pop\n        /* \"#utility.yul\":9666:9737   */\n      tag_228\n        /* \"#utility.yul\":9734:9735   */\n      0x00\n        /* \"#utility.yul\":9723:9732   */\n      dup4\n        /* \"#utility.yul\":9719:9736   */\n      add\n        /* \"#utility.yul\":9710:9716   */\n      dup5\n        /* \"#utility.yul\":9666:9737   */\n      tag_80\n      jump\t// in\n    tag_228:\n        /* \"#utility.yul\":9522:9744   */\n      swap3\n      swap2\n      pop\n      pop\n      jump\t// out\n        /* \"#utility.yul\":9750:9925   */\n    tag_102:\n        /* \"#utility.yul\":9890:9917   */\n      0x426f7468207065657273206d757374206265206f6e6c696e6500000000000000\n        /* \"#utility.yul\":9886:9887   */\n      0x00\n        /* \"#utility.yul\":9878:9884   */\n      dup3\n        /* \"#utility.yul\":9874:9888   */\n      add\n        /* \"#utility.yul\":9867:9918   */\n      mstore\n        /* \"#utility.yul\":9750:9925   */\n      pop\n      jump\t// out\n        /* \"#utility.yul\":9931:10297   */\n    tag_103:\n        /* \"#utility.yul\":10073:10076   */\n      0x00\n        /* \"#utility.yul\":10094:10161   */\n      tag_231\n        /* \"#utility.yul\":10158:10160   */\n      0x19\n        /* \"#utility.yul\":10153:10156   */\n      dup4\n        /* \"#utility.yul\":10094:10161   */\n      tag_99\n      jump\t// in\n    tag_231:\n        /* \"#utility.yul\":10087:10161   */\n      swap2\n      pop\n        /* \"#utility.yul\":10170:10263   */\n      tag_232\n        /* \"#utility.yul\":10259:10262   */\n      dup3\n        /* \"#utility.yul\":10170:10263   */\n      tag_102\n      jump\t// in\n    tag_232:\n        /* \"#utility.yul\":10288:10290   */\n      0x20\n        /* \"#utility.yul\":10283:10286   */\n      dup3\n        /* \"#utility.yul\":10279:10291   */\n      add\n        /* \"#utility.yul\":10272:10291   */\n      swap1\n      pop\n        /* \"#utility.yul\":9931:10297   */\n      swap2\n      swap1\n      pop\n      jump\t// out\n        /* \"#utility.yul\":10303:10722   */\n    tag_45:\n        /* \"#utility.yul\":10469:10473   */\n      0x00\n        /* \"#utility.yul\":10507:10509   */\n      0x20\n        /* \"#utility.yul\":10496:10505   */\n      dup3\n        /* \"#utility.yul\":10492:10510   */\n      add\n        /* \"#utility.yul\":10484:10510   */\n      swap1\n      pop\n        /* \"#utility.yul\":10556:10565   */\n      dup2\n        /* \"#utility.yul\":10550:10554   */\n      dup2\n        /* \"#utility.yul\":10546:10566   */\n      sub\n        /* \"#utility.yul\":10542:10543   */\n      0x00\n        /* \"#utility.yul\":10531:10540   */\n      dup4\n        /* \"#utility.yul\":10527:10544   */\n      add\n        /* \"#utility.yul\":10520:10567   */\n      mstore\n        /* \"#utility.yul\":10584:10715   */\n      tag_234\n        /* \"#utility.yul\":10710:10714   */\n      dup2\n        /* \"#utility.yul\":10584:10715   */\n      tag_103\n      jump\t// in\n    tag_234:\n        /* \"#utility.yul\":10576:10715   */\n      swap1\n      pop\n        /* \"#utility.yul\":10303:10722   */\n      swap2\n      swap1\n      pop\n      jump\t// out\n        /* \"#utility.yul\":10728:10908   */\n    tag_104:\n        /* \"#utility.yul\":10776:10853   */\n      0x4e487b7100000000000000000000000000000000000000000000000000000000\n        /* \"#utility.yul\":10773:10774   */\n      0x00\n        /* \"#utility.yul\":10766:10854   */\n      mstore\n        /* \"#utility.yul\":10873:10877   */\n      0x11\n        /* \"#utility.yul\":10870:10871   */\n      0x04\n        /* \"#utility.yul\":10863:10878   */\n      mstore\n        /* \"#utility.yul\":10897:10901   */\n      0x24\n        /* \"#utility.yul\":10894:10895   */\n      0x00\n        /* \"#utility.yul\":10887:10902   */\n      revert\n        /* \"#utility.yul\":10914:11147   */\n    tag_47:\n        /* \"#utility.yul\":10953:10956   */\n      0x00\n        /* \"#utility.yul\":10976:11000   */\n      tag_237\n        /* \"#utility.yul\":10994:10999   */\n      dup3\n        /* \"#utility.yul\":10976:11000   */\n      tag_81\n      jump\t// in\n    tag_237:\n        /* \"#utility.yul\":10967:11000   */\n      swap2\n      pop\n        /* \"#utility.yul\":11022:11088   */\n      0xffffffffffffffffffffffffffffffffffffffffffffffffffffffffffffffff\n        /* \"#utility.yul\":11015:11020   */\n      dup3\n        /* \"#utility.yul\":11012:11089   */\n      sub\n        /* \"#utility.yul\":11009:11112   */\n      tag_238\n      jumpi\n        /* \"#utility.yul\":11092:11110   */\n      tag_239\n      tag_104\n      jump\t// in\n    tag_239:\n        /* \"#utility.yul\":11009:11112   */\n    tag_238:\n        /* \"#utility.yul\":11139:11140   */\n      0x01\n        /* \"#utility.yul\":11132:11137   */\n      dup3\n        /* \"#utility.yul\":11128:11141   */\n      add\n        /* \"#utility.yul\":11121:11141   */\n      swap1\n      pop\n        /* \"#utility.yul\":10914:11147   */\n      swap2\n      swap1\n      pop\n      jump\t// out\n        /* \"#utility.yul\":11153:11252   */\n    tag_105:\n        /* \"#utility.yul\":11205:11211   */\n      0x00\n        /* \"#utility.yul\":11239:11244   */\n      dup2\n        /* \"#utility.yul\":11233:11245   */\n      mload\n        /* \"#utility.yul\":11223:11245   */\n      swap1\n      pop\n        /* \"#utility.yul\":11153:11252   */\n      swap2\n      swap1\n      pop\n      jump\t// out\n        /* \"#utility.yul\":11258:11438   */\n    tag_106:\n        /* \"#utility.yul\":11306:11383   */\n      0x4e487b7100000000000000000000000000000000000000000000000000000000\n        /* \"#utility.yul\":11303:11304   */\n      0x00\n        /* \"#utility.yul\":11296:11384   */\n      mstore\n        /* \"#utility.yul\":11403:11407   */\n      0x22\n        /* \"#utility.yul\":11400:11401   */\n      0x04\n        /* \"#utility.yul\":11393:11408   */\n      mstore\n        /* \"#utility.yul\":11427:11431   */\n      0x24\n        /* \"#utility.yul\":11424:11425   */\n      0x00\n        /* \"#utility.yul\":11417:11432   */\n      revert\n        /* \"#utility.yul\":11444:11764   */\n    tag_64:\n        /* \"#utility.yul\":11488:11494   */\n      0x00\n        /* \"#utility.yul\":11525:11526   */\n      0x02\n        /* \"#utility.yul\":11519:11523   */\n      dup3\n        /* \"#utility.yul\":11515:11527   */\n      div\n        /* \"#utility.yul\":11505:11527   */\n      swap1\n      pop\n        /* \"#utility.yul\":11572:11573   */\n      0x01\n        /* \"#utility.yul\":11566:11570   */\n      dup3\n        /* \"#utility.yul\":11562:11574   */\n      and\n        /* \"#utility.yul\":11593:11611   */\n      dup1\n        /* \"#utility.yul\":11583:11664   */\n      tag_243\n      jumpi\n        /* \"#utility.yul\":11649:11653   */\n      0x7f\n        /* \"#utility.yul\":11641:11647   */\n      dup3\n        /* \"#utility.yul\":11637:11654   */\n      and\n        /* \"#utility.yul\":11627:11654   */\n      swap2\n      pop\n        /* \"#utility.yul\":11583:11664   */\n    tag_243:\n        /* \"#utility.yul\":11711:11713   */\n      0x20\n        /* \"#utility.yul\":11703:11709   */\n      dup3\n        /* \"#utility.yul\":11700:11714   */\n      lt\n        /* \"#utility.yul\":11680:11698   */\n      dup2\n        /* \"#utility.yul\":11677:11715   */\n      sub\n        /* \"#utility.yul\":11674:11758   */\n      tag_244\n      jumpi\n        /* \"#utility.yul\":11730:11748   */\n      tag_245\n      tag_106\n      jump\t// in\n    tag_245:\n        /* \"#utility.yul\":11674:11758   */\n    tag_244:\n        /* \"#utility.yul\":11495:11764   */\n      pop\n        /* \"#utility.yul\":11444:11764   */\n      swap2\n      swap1\n      pop\n      jump\t// out\n        /* \"#utility.yul\":11770:11911   */\n    tag_107:\n        /* \"#utility.yul\":11819:11823   */\n      0x00\n        /* \"#utility.yul\":11842:11845   */\n      dup2\n        /* \"#utility.yul\":11834:11845   */\n      swap1\n      pop\n        /* \"#utility.yul\":11865:11868   */\n      dup2\n        /* \"#utility.yul\":11862:11863   */\n      0x00\n        /* \"#utility.yul\":11855:11869   */\n      mstore\n        /* \"#utility.yul\":11899:11903   */\n      0x20\n        /* \"#utility.yul\":11896:11897   */\n      0x00\n        /* \"#utility.yul\":11886:11904   */\n      keccak256\n        /* \"#utility.yul\":11878:11904   */\n      swap1\n      pop\n        /* \"#utility.yul\":11770:11911   */\n      swap2\n      swap1\n      pop\n      jump\t// out\n        /* \"#utility.yul\":11917:12010   */\n    tag_108:\n        /* \"#utility.yul\":11954:11960   */\n      0x00\n        /* \"#utility.yul\":12001:12003   */\n      0x20\n        /* \"#utility.yul\":11996:11998   */\n      0x1f\n        /* \"#utility.yul\":11989:11994   */\n      dup4\n        /* \"#utility.yul\":11985:11999   */\n      add\n        /* \"#utility.yul\":11981:12004   */\n      div\n        /* \"#utility.yul\":11971:12004   */\n      swap1\n      pop\n        /* \"#utility.yul\":11917:12010   */\n      swap2\n      swap1\n      pop\n      jump\t// out\n        /* \"#utility.yul\":12016:12123   */\n    tag_109:\n        /* \"#utility.yul\":12060:12068   */\n      0x00\n        /* \"#utility.yul\":12110:12115   */\n      dup3\n        /* \"#utility.yul\":12104:12108   */\n      dup3\n        /* \"#utility.yul\":12100:12116   */\n      shl\n        /* \"#utility.yul\":12079:12116   */\n      swap1\n      pop\n        /* \"#utility.yul\":12016:12123   */\n      swap3\n      swap2\n      pop\n      pop\n      jump\t// out\n        /* \"#utility.yul\":12129:12522   */\n    tag_110:\n        /* \"#utility.yul\":12198:12204   */\n      0x00\n        /* \"#utility.yul\":12248:12249   */\n      0x08\n        /* \"#utility.yul\":12236:12246   */\n      dup4\n        /* \"#utility.yul\":12232:12250   */\n      mul\n        /* \"#utility.yul\":12271:12368   */\n      tag_250\n        /* \"#utility.yul\":12301:12367   */\n      0xffffffffffffffffffffffffffffffffffffffffffffffffffffffffffffffff\n        /* \"#utility.yul\":12290:12299   */\n      dup3\n        /* \"#utility.yul\":12271:12368   */\n      tag_109\n      jump\t// in\n    tag_250:\n        /* \"#utility.yul\":12389:12428   */\n      tag_251\n        /* \"#utility.yul\":12419:12427   */\n      dup7\n        /* \"#utility.yul\":12408:12417   */\n      dup4\n        /* \"#utility.yul\":12389:12428   */\n      tag_109\n      jump\t// in\n    tag_251:\n        /* \"#utility.yul\":12377:12428   */\n      swap6\n      pop\n        /* \"#utility.yul\":12461:12465   */\n      dup1\n        /* \"#utility.yul\":12457:12466   */\n      not\n        /* \"#utility.yul\":12450:12455   */\n      dup5\n        /* \"#utility.yul\":12446:12467   */\n      and\n        /* \"#utility.yul\":12437:12467   */\n      swap4\n      pop\n        /* \"#utility.yul\":12510:12514   */\n      dup1\n        /* \"#utility.yul\":12500:12508   */\n      dup7\n        /* \"#utility.yul\":12496:12515   */\n      and\n        /* \"#utility.yul\":12489:12494   */\n      dup5\n        /* \"#utility.yul\":12486:12516   */\n      or\n        /* \"#utility.yul\":12476:12516   */\n      swap3\n      pop\n        /* \"#utility.yul\":12205:12522   */\n      pop\n      pop\n        /* \"#utility.yul\":12129:12522   */\n      swap4\n      swap3\n      pop\n      pop\n      pop\n      jump\t// out\n        /* \"#utility.yul\":12528:12588   */\n    tag_111:\n        /* \"#utility.yul\":12556:12559   */\n      0x00\n        /* \"#utility.yul\":12577:12582   */\n      dup2\n        /* \"#utility.yul\":12570:12582   */\n      swap1\n      pop\n        /* \"#utility.yul\":12528:12588   */\n      swap2\n      swap1\n      pop\n      jump\t// out\n        /* \"#utility.yul\":12594:12736   */\n    tag_112:\n        /* \"#utility.yul\":12644:12653   */\n      0x00\n        /* \"#utility.yul\":12677:12730   */\n      tag_254\n        /* \"#utility.yul\":12695:12729   */\n      tag_255\n        /* \"#utility.yul\":12704:12728   */\n      tag_256\n        /* \"#utility.yul\":12722:12727   */\n      dup5\n        /* \"#utility.yul\":12704:12728   */\n      tag_81\n      jump\t// in\n    tag_256:\n        /* \"#utility.yul\":12695:12729   */\n      tag_111\n      jump\t// in\n    tag_255:\n        /* \"#utility.yul\":12677:12730   */\n      tag_81\n      jump\t// in\n    tag_254:\n        /* \"#utility.yul\":12664:12730   */\n      swap1\n      pop\n        /* \"#utility.yul\":12594:12736   */\n      swap2\n      swap1\n      pop\n      jump\t// out\n        /* \"#utility.yul\":12742:12817   */\n    tag_113:\n        /* \"#utility.yul\":12785:12788   */\n      0x00\n        /* \"#utility.yul\":12806:12811   */\n      dup2\n        /* \"#utility.yul\":12799:12811   */\n      swap1\n      pop\n        /* \"#utility.yul\":12742:12817   */\n      swap2\n      swap1\n      pop\n      jump\t// out\n        /* \"#utility.yul\":12823:13092   */\n    tag_114:\n        /* \"#utility.yul\":12933:12972   */\n      tag_259\n        /* \"#utility.yul\":12964:12971   */\n      dup4\n        /* \"#utility.yul\":12933:12972   */\n      tag_112\n      jump\t// in\n    tag_259:\n        /* \"#utility.yul\":12994:13085   */\n      tag_260\n        /* \"#utility.yul\":13043:13084   */\n      tag_261\n        /* \"#utility.yul\":13067:13083   */\n      dup3\n        /* \"#utility.yul\":13043:13084   */\n      tag_113\n      jump\t// in\n    tag_261:\n        /* \"#utility.yul\":13035:13041   */\n      dup5\n        /* \"#utility.yul\":13028:13032   */\n      dup5\n        /* \"#utility.yul\":13022:13033   */\n      sload\n        /* \"#utility.yul\":12994:13085   */\n      tag_110\n      jump\t// in\n    tag_260:\n        /* \"#utility.yul\":12988:12992   */\n      dup3\n        /* \"#utility.yul\":12981:13086   */\n      sstore\n        /* \"#utility.yul\":12899:13092   */\n      pop\n        /* \"#utility.yul\":12823:13092   */\n      pop\n      pop\n      pop\n      jump\t// out\n        /* \"#utility.yul\":13098:13171   */\n    tag_115:\n        /* \"#utility.yul\":13143:13146   */\n      0x00\n        /* \"#utility.yul\":13098:13171   */\n      swap1\n      jump\t// out\n        /* \"#utility.yul\":13177:13366   */\n    tag_116:\n        /* \"#utility.yul\":13254:13286   */\n      tag_264\n      tag_115\n      jump\t// in\n    tag_264:\n        /* \"#utility.yul\":13295:13360   */\n      tag_265\n        /* \"#utility.yul\":13353:13359   */\n      dup2\n        /* \"#utility.yul\":13345:13351   */\n      dup5\n        /* \"#utility.yul\":13339:13343   */\n      dup5\n        /* \"#utility.yul\":13295:13360   */\n      tag_114\n      jump\t// in\n    tag_265:\n        /* \"#utility.yul\":13230:13366   */\n      pop\n        /* \"#utility.yul\":13177:13366   */\n      pop\n      pop\n      jump\t// out\n        /* \"#utility.yul\":13372:13558   */\n    tag_117:\n        /* \"#utility.yul\":13432:13552   */\n    tag_267:\n        /* \"#utility.yul\":13449:13452   */\n      dup2\n        /* \"#utility.yul\":13442:13447   */\n      dup2\n        /* \"#utility.yul\":13439:13453   */\n      lt\n        /* \"#utility.yul\":13432:13552   */\n      iszero\n      tag_269\n      jumpi\n        /* \"#utility.yul\":13503:13542   */\n      tag_270\n        /* \"#utility.yul\":13540:13541   */\n      0x00\n        /* \"#utility.yul\":13533:13538   */\n      dup3\n        /* \"#utility.yul\":13503:13542   */\n      tag_116\n      jump\t// in\n    tag_270:\n        /* \"#utility.yul\":13476:13477   */\n      0x01\n        /* \"#utility.yul\":13469:13474   */\n      dup2\n        /* \"#utility.yul\":13465:13478   */\n      add\n        /* \"#utility.yul\":13456:13478   */\n      swap1\n      pop\n        /* \"#utility.yul\":13432:13552   */\n      jump(tag_267)\n    tag_269:\n        /* \"#utility.yul\":13372:13558   */\n      pop\n      pop\n      jump\t// out\n        /* \"#utility.yul\":13564:14107   */\n    tag_118:\n        /* \"#utility.yul\":13665:13667   */\n      0x1f\n        /* \"#utility.yul\":13660:13663   */\n      dup3\n        /* \"#utility.yul\":13657:13668   */\n      gt\n        /* \"#utility.yul\":13654:14100   */\n      iszero\n      tag_272\n      jumpi\n        /* \"#utility.yul\":13699:13737   */\n      tag_273\n        /* \"#utility.yul\":13731:13736   */\n      dup2\n        /* \"#utility.yul\":13699:13737   */\n      tag_107\n      jump\t// in\n    tag_273:\n        /* \"#utility.yul\":13783:13812   */\n      tag_274\n        /* \"#utility.yul\":13801:13811   */\n      dup5\n        /* \"#utility.yul\":13783:13812   */\n      tag_108\n      jump\t// in\n    tag_274:\n        /* \"#utility.yul\":13773:13781   */\n      dup2\n        /* \"#utility.yul\":13769:13813   */\n      add\n        /* \"#utility.yul\":13966:13968   */\n      0x20\n        /* \"#utility.yul\":13954:13964   */\n      dup6\n        /* \"#utility.yul\":13951:13969   */\n      lt\n        /* \"#utility.yul\":13948:13997   */\n      iszero\n      tag_275\n      jumpi\n        /* \"#utility.yul\":13987:13995   */\n      dup2\n        /* \"#utility.yul\":13972:13995   */\n      swap1\n      pop\n        /* \"#utility.yul\":13948:13997   */\n    tag_275:\n        /* \"#utility.yul\":14010:14090   */\n      tag_276\n        /* \"#utility.yul\":14066:14088   */\n      tag_277\n        /* \"#utility.yul\":14084:14087   */\n      dup6\n        /* \"#utility.yul\":14066:14088   */\n      tag_108\n      jump\t// in\n    tag_277:\n        /* \"#utility.yul\":14056:14064   */\n      dup4\n        /* \"#utility.yul\":14052:14089   */\n      add\n        /* \"#utility.yul\":14039:14050   */\n      dup3\n        /* \"#utility.yul\":14010:14090   */\n      tag_117\n      jump\t// in\n    tag_276:\n        /* \"#utility.yul\":13669:14100   */\n      pop\n      pop\n        /* \"#utility.yul\":13654:14100   */\n    tag_272:\n        /* \"#utility.yul\":13564:14107   */\n      pop\n      pop\n      pop\n      jump\t// out\n        /* \"#utility.yul\":14113:14230   */\n    tag_119:\n        /* \"#utility.yul\":14167:14175   */\n      0x00\n        /* \"#utility.yul\":14217:14222   */\n      dup3\n        /* \"#utility.yul\":14211:14215   */\n      dup3\n        /* \"#utility.yul\":14207:14223   */\n      shr\n        /* \"#utility.yul\":14186:14223   */\n      swap1\n      pop\n        /* \"#utility.yul\":14113:14230   */\n      swap3\n      swap2\n      pop\n      pop\n      jump\t// out\n        /* \"#utility.yul\":14236:14405   */\n    tag_120:\n        /* \"#utility.yul\":14280:14286   */\n      0x00\n        /* \"#utility.yul\":14313:14364   */\n      tag_280\n        /* \"#utility.yul\":14361:14362   */\n      0x00\n        /* \"#utility.yul\":14357:14363   */\n      not\n        /* \"#utility.yul\":14349:14354   */\n      dup5\n        /* \"#utility.yul\":14346:14347   */\n      0x08\n        /* \"#utility.yul\":14342:14355   */\n      mul\n        /* \"#utility.yul\":14313:14364   */\n      tag_119\n      jump\t// in\n    tag_280:\n        /* \"#utility.yul\":14309:14365   */\n      not\n        /* \"#utility.yul\":14394:14398   */\n      dup1\n        /* \"#utility.yul\":14388:14392   */\n      dup4\n        /* \"#utility.yul\":14384:14399   */\n      and\n        /* \"#utility.yul\":14374:14399   */\n      swap2\n      pop\n        /* \"#utility.yul\":14287:14405   */\n      pop\n        /* \"#utility.yul\":14236:14405   */\n      swap3\n      swap2\n      pop\n      pop\n      jump\t// out\n        /* \"#utility.yul\":14410:14705   */\n    tag_121:\n        /* \"#utility.yul\":14486:14490   */\n      0x00\n        /* \"#utility.yul\":14632:14661   */\n      tag_282\n        /* \"#utility.yul\":14657:14660   */\n      dup4\n        /* \"#utility.yul\":14651:14655   */\n      dup4\n        /* \"#utility.yul\":14632:14661   */\n      tag_120\n      jump\t// in\n    tag_282:\n        /* \"#utility.yul\":14624:14661   */\n      swap2\n      pop\n        /* \"#utility.yul\":14694:14697   */\n      dup3\n        /* \"#utility.yul\":14691:14692   */\n      0x02\n        /* \"#utility.yul\":14687:14698   */\n      mul\n        /* \"#utility.yul\":14681:14685   */\n      dup3\n        /* \"#utility.yul\":14678:14699   */\n      or\n        /* \"#utility.yul\":14670:14699   */\n      swap1\n      pop\n        /* \"#utility.yul\":14410:14705   */\n      swap3\n      swap2\n      pop\n      pop\n      jump\t// out\n        /* \"#utility.yul\":14710:16105   */\n    tag_49:\n        /* \"#utility.yul\":14827:14864   */\n      tag_284\n        /* \"#utility.yul\":14860:14863   */\n      dup3\n        /* \"#utility.yul\":14827:14864   */\n      tag_105\n      jump\t// in\n    tag_284:\n        /* \"#utility.yul\":14929:14947   */\n      0xffffffffffffffff\n        /* \"#utility.yul\":14921:14927   */\n      dup2\n        /* \"#utility.yul\":14918:14948   */\n      gt\n        /* \"#utility.yul\":14915:14971   */\n      iszero\n      tag_285\n      jumpi\n        /* \"#utility.yul\":14951:14969   */\n      tag_286\n      tag_87\n      jump\t// in\n    tag_286:\n        /* \"#utility.yul\":14915:14971   */\n    tag_285:\n        /* \"#utility.yul\":14995:15033   */\n      tag_287\n        /* \"#utility.yul\":15027:15031   */\n      dup3\n        /* \"#utility.yul\":15021:15032   */\n      sload\n        /* \"#utility.yul\":14995:15033   */\n      tag_64\n      jump\t// in\n    tag_287:\n        /* \"#utility.yul\":15080:15147   */\n      tag_288\n        /* \"#utility.yul\":15140:15146   */\n      dup3\n        /* \"#utility.yul\":15132:15138   */\n      dup3\n        /* \"#utility.yul\":15126:15130   */\n      dup6\n        /* \"#utility.yul\":15080:15147   */\n      tag_118\n      jump\t// in\n    tag_288:\n        /* \"#utility.yul\":15174:15175   */\n      0x00\n        /* \"#utility.yul\":15198:15202   */\n      0x20\n        /* \"#utility.yul\":15185:15202   */\n      swap1\n      pop\n        /* \"#utility.yul\":15230:15232   */\n      0x1f\n        /* \"#utility.yul\":15222:15228   */\n      dup4\n        /* \"#utility.yul\":15219:15233   */\n      gt\n        /* \"#utility.yul\":15247:15248   */\n      0x01\n        /* \"#utility.yul\":15242:15860   */\n      dup2\n      eq\n      tag_290\n      jumpi\n        /* \"#utility.yul\":15904:15905   */\n      0x00\n        /* \"#utility.yul\":15921:15927   */\n      dup5\n        /* \"#utility.yul\":15918:15995   */\n      iszero\n      tag_291\n      jumpi\n        /* \"#utility.yul\":15970:15979   */\n      dup3\n        /* \"#utility.yul\":15965:15968   */\n      dup8\n        /* \"#utility.yul\":15961:15980   */\n      add\n        /* \"#utility.yul\":15955:15981   */\n      mload\n        /* \"#utility.yul\":15946:15981   */\n      swap1\n      pop\n        /* \"#utility.yul\":15918:15995   */\n    tag_291:\n        /* \"#utility.yul\":16021:16088   */\n      tag_292\n        /* \"#utility.yul\":16081:16087   */\n      dup6\n        /* \"#utility.yul\":16074:16079   */\n      dup3\n        /* \"#utility.yul\":16021:16088   */\n      tag_121\n      jump\t// in\n    tag_292:\n        /* \"#utility.yul\":16015:16019   */\n      dup7\n        /* \"#utility.yul\":16008:16089   */\n      sstore\n        /* \"#utility.yul\":15877:16099   */\n      pop\n        /* \"#utility.yul\":15212:16099   */\n      jump(tag_289)\n        /* \"#utility.yul\":15242:15860   */\n    tag_290:\n        /* \"#utility.yul\":15294:15298   */\n      0x1f\n        /* \"#utility.yul\":15290:15299   */\n      not\n        /* \"#utility.yul\":15282:15288   */\n      dup5\n        /* \"#utility.yul\":15278:15300   */\n      and\n        /* \"#utility.yul\":15328:15365   */\n      tag_293\n        /* \"#utility.yul\":15360:15364   */\n      dup7\n        /* \"#utility.yul\":15328:15365   */\n      tag_107\n      jump\t// in\n    tag_293:\n        /* \"#utility.yul\":15387:15388   */\n      0x00\n        /* \"#utility.yul\":15401:15609   */\n    tag_294:\n        /* \"#utility.yul\":15415:15422   */\n      dup3\n        /* \"#utility.yul\":15412:15413   */\n      dup2\n        /* \"#utility.yul\":15409:15423   */\n      lt\n        /* \"#utility.yul\":15401:15609   */\n      iszero\n      tag_296\n      jumpi\n        /* \"#utility.yul\":15494:15503   */\n      dup5\n        /* \"#utility.yul\":15489:15492   */\n      dup10\n        /* \"#utility.yul\":15485:15504   */\n      add\n        /* \"#utility.yul\":15479:15505   */\n      mload\n        /* \"#utility.yul\":15471:15477   */\n      dup3\n        /* \"#utility.yul\":15464:15506   */\n      sstore\n        /* \"#utility.yul\":15545:15546   */\n      0x01\n        /* \"#utility.yul\":15537:15543   */\n      dup3\n        /* \"#utility.yul\":15533:15547   */\n      add\n        /* \"#utility.yul\":15523:15547   */\n      swap2\n      pop\n        /* \"#utility.yul\":15592:15594   */\n      0x20\n        /* \"#utility.yul\":15581:15590   */\n      dup6\n        /* \"#utility.yul\":15577:15595   */\n      add\n        /* \"#utility.yul\":15564:15595   */\n      swap5\n      pop\n        /* \"#utility.yul\":15438:15442   */\n      0x20\n        /* \"#utility.yul\":15435:15436   */\n      dup2\n        /* \"#utility.yul\":15431:15443   */\n      add\n        /* \"#utility.yul\":15426:15443   */\n      swap1\n      pop\n        /* \"#utility.yul\":15401:15609   */\n      jump(tag_294)\n    tag_296:\n        /* \"#utility.yul\":15637:15643   */\n      dup7\n        /* \"#utility.yul\":15628:15635   */\n      dup4\n        /* \"#utility.yul\":15625:15644   */\n      lt\n        /* \"#utility.yul\":15622:15801   */\n      iszero\n      tag_297\n      jumpi\n        /* \"#utility.yul\":15695:15704   */\n      dup5\n        /* \"#utility.yul\":15690:15693   */\n      dup10\n        /* \"#utility.yul\":15686:15705   */\n      add\n        /* \"#utility.yul\":15680:15706   */\n      mload\n        /* \"#utility.yul\":15738:15786   */\n      tag_298\n        /* \"#utility.yul\":15780:15784   */\n      0x1f\n        /* \"#utility.yul\":15772:15778   */\n      dup10\n        /* \"#utility.yul\":15768:15785   */\n      and\n        /* \"#utility.yul\":15757:15766   */\n      dup3\n        /* \"#utility.yul\":15738:15786   */\n      tag_120\n      jump\t// in\n    tag_298:\n        /* \"#utility.yul\":15730:15736   */\n      dup4\n        /* \"#utility.yul\":15723:15787   */\n      sstore\n        /* \"#utility.yul\":15645:15801   */\n      pop\n        /* \"#utility.yul\":15622:15801   */\n    tag_297:\n        /* \"#utility.yul\":15847:15848   */\n      0x01\n        /* \"#utility.yul\":15843:15844   */\n      0x02\n        /* \"#utility.yul\":15835:15841   */\n      dup9\n        /* \"#utility.yul\":15831:15845   */\n      mul\n        /* \"#utility.yul\":15827:15849   */\n      add\n        /* \"#utility.yul\":15821:15825   */\n      dup9\n        /* \"#utility.yul\":15814:15850   */\n      sstore\n        /* \"#utility.yul\":15249:15860   */\n      pop\n      pop\n      pop\n        /* \"#utility.yul\":15212:16099   */\n    tag_289:\n      pop\n        /* \"#utility.yul\":14802:16105   */\n      pop\n      pop\n      pop\n        /* \"#utility.yul\":14710:16105   */\n      pop\n      pop\n      jump\t// out\n        /* \"#utility.yul\":16111:16664   */\n    tag_52:\n        /* \"#utility.yul\":16288:16292   */\n      0x00\n        /* \"#utility.yul\":16326:16329   */\n      0x80\n        /* \"#utility.yul\":16315:16324   */\n      dup3\n        /* \"#utility.yul\":16311:16330   */\n      add\n        /* \"#utility.yul\":16303:16330   */\n      swap1\n      pop\n        /* \"#utility.yul\":16340:16411   */\n      tag_300\n        /* \"#utility.yul\":16408:16409   */\n      0x00\n        /* \"#utility.yul\":16397:16406   */\n      dup4\n        /* \"#utility.yul\":16393:16410   */\n      add\n        /* \"#utility.yul\":16384:16390   */\n      dup8\n        /* \"#utility.yul\":16340:16411   */\n      tag_82\n      jump\t// in\n    tag_300:\n        /* \"#utility.yul\":16421:16493   */\n      tag_301\n        /* \"#utility.yul\":16489:16491   */\n      0x20\n        /* \"#utility.yul\":16478:16487   */\n      dup4\n        /* \"#utility.yul\":16474:16492   */\n      add\n        /* \"#utility.yul\":16465:16471   */\n      dup7\n        /* \"#utility.yul\":16421:16493   */\n      tag_80\n      jump\t// in\n    tag_301:\n        /* \"#utility.yul\":16503:16575   */\n      tag_302\n        /* \"#utility.yul\":16571:16573   */\n      0x40\n        /* \"#utility.yul\":16560:16569   */\n      dup4\n        /* \"#utility.yul\":16556:16574   */\n      add\n        /* \"#utility.yul\":16547:16553   */\n      dup6\n        /* \"#utility.yul\":16503:16575   */\n      tag_80\n      jump\t// in\n    tag_302:\n        /* \"#utility.yul\":16585:16657   */\n      tag_303\n        /* \"#utility.yul\":16653:16655   */\n      0x60\n        /* \"#utility.yul\":16642:16651   */\n      dup4\n        /* \"#utility.yul\":16638:16656   */\n      add\n        /* \"#utility.yul\":16629:16635   */\n      dup5\n        /* \"#utility.yul\":16585:16657   */\n      tag_82\n      jump\t// in\n    tag_303:\n        /* \"#utility.yul\":16111:16664   */\n      swap6\n      swap5\n      pop\n      pop\n      pop\n      pop\n      pop\n      jump\t// out\n\n    auxdata: 0xa2646970667358221220ef2975a9720eed741ab68bf9993a8f1fc60bf5b57c81d1b94a2a76f026f567be64736f6c63430008180033\n}\n",
				"bytecode": {
					"linkReferences": {},
					"object": "608060405234801561000f575f80fd5b506114398061001d5f395ff3fe608060405234801561000f575f80fd5b5060043610610055575f3560e01c80631c8590ba1461005957806326cc55831461008b57806386815a25146100a7578063d7338dda146100b1578063e31599ae146100cd575b5f80fd5b610073600480360381019061006e9190610ba4565b6100e9565b60405161008293929190610c10565b60405180910390f35b6100a560048036038101906100a09190610c6f565b610139565b005b6100af610403565b005b6100cb60048036038101906100c69190610eb8565b610491565b005b6100e760048036038101906100e29190610eff565b6105f2565b005b5f602052805f5260405f205f91509050805f015f9054906101000a900460ff1690805f0160019054906101000a900473ffffffffffffffffffffffffffffffffffffffff16908060030154905083565b5f803373ffffffffffffffffffffffffffffffffffffffff1673ffffffffffffffffffffffffffffffffffffffff1681526020019081526020015f206002015f8281526020019081526020015f206005015f9054906101000a900460ff166101d6576040517f08c379a00000000000000000000000000000000000000000000000000000000081526004016101cd90610fb3565b60405180910390fd5b5f805f3373ffffffffffffffffffffffffffffffffffffffff1673ffffffffffffffffffffffffffffffffffffffff1681526020019081526020015f206002015f8381526020019081526020015f206005015f6101000a81548160ff021916908315150217905550425f803373ffffffffffffffffffffffffffffffffffffffff1673ffffffffffffffffffffffffffffffffffffffff1681526020019081526020015f206002015f8381526020019081526020015f20600301819055505f805f3373ffffffffffffffffffffffffffffffffffffffff1673ffffffffffffffffffffffffffffffffffffffff1681526020019081526020015f206002015f8381526020019081526020015f206001015f9054906101000a900473ffffffffffffffffffffffffffffffffffffffff1690505f805f8373ffffffffffffffffffffffffffffffffffffffff1673ffffffffffffffffffffffffffffffffffffffff1681526020019081526020015f206002015f8481526020019081526020015f206005015f6101000a81548160ff021916908315150217905550425f808373ffffffffffffffffffffffffffffffffffffffff1673ffffffffffffffffffffffffffffffffffffffff1681526020019081526020015f206002015f8481526020019081526020015f20600301819055507fe4bdf3c3959e99d1ee4e5254bb9290bc5f6e3defb54820041d5245054448bb7382426040516103f7929190610fd1565b60405180910390a15050565b5f805f3373ffffffffffffffffffffffffffffffffffffffff1673ffffffffffffffffffffffffffffffffffffffff1681526020019081526020015f205f015f6101000a81548160ff0219169083151502179055507fcb01be1350504f575a8d64e20d60d1229b82390e20a11d02b87d05d55bc3bc0f336040516104879190610ff8565b60405180910390a1565b60015f803373ffffffffffffffffffffffffffffffffffffffff1673ffffffffffffffffffffffffffffffffffffffff1681526020019081526020015f205f015f6101000a81548160ff021916908315150217905550335f803373ffffffffffffffffffffffffffffffffffffffff1673ffffffffffffffffffffffffffffffffffffffff1681526020019081526020015f205f0160016101000a81548173ffffffffffffffffffffffffffffffffffffffff021916908373ffffffffffffffffffffffffffffffffffffffff160217905550805f803373ffffffffffffffffffffffffffffffffffffffff1673ffffffffffffffffffffffffffffffffffffffff1681526020019081526020015f2060010190805190602001906105b7929190610a67565b507fcec2b9efad72fc6d5e9251a23fc0a71291337ae547ba85241a8bf80bb2c703e3336040516105e79190610ff8565b60405180910390a150565b5f803373ffffffffffffffffffffffffffffffffffffffff1673ffffffffffffffffffffffffffffffffffffffff1681526020019081526020015f205f015f9054906101000a900460ff16801561069057505f808373ffffffffffffffffffffffffffffffffffffffff1673ffffffffffffffffffffffffffffffffffffffff1681526020019081526020015f205f015f9054906101000a900460ff165b6106cf576040517f08c379a00000000000000000000000000000000000000000000000000000000081526004016106c69061105b565b60405180910390fd5b5f805f3373ffffffffffffffffffffffffffffffffffffffff1673ffffffffffffffffffffffffffffffffffffffff1681526020019081526020015f206003015f81548092919061071f906110a6565b9190505590506040518060c001604052803373ffffffffffffffffffffffffffffffffffffffff1681526020018473ffffffffffffffffffffffffffffffffffffffff1681526020014281526020015f8152602001838152602001600115158152505f803373ffffffffffffffffffffffffffffffffffffffff1673ffffffffffffffffffffffffffffffffffffffff1681526020019081526020015f206002015f8381526020019081526020015f205f820151815f015f6101000a81548173ffffffffffffffffffffffffffffffffffffffff021916908373ffffffffffffffffffffffffffffffffffffffff1602179055506020820151816001015f6101000a81548173ffffffffffffffffffffffffffffffffffffffff021916908373ffffffffffffffffffffffffffffffffffffffff1602179055506040820151816002015560608201518160030155608082015181600401908161088291906112f1565b5060a0820151816005015f6101000a81548160ff0219169083151502179055509050506040518060c001604052803373ffffffffffffffffffffffffffffffffffffffff1681526020018473ffffffffffffffffffffffffffffffffffffffff1681526020014281526020015f8152602001838152602001600115158152505f808573ffffffffffffffffffffffffffffffffffffffff1673ffffffffffffffffffffffffffffffffffffffff1681526020019081526020015f206002015f8381526020019081526020015f205f820151815f015f6101000a81548173ffffffffffffffffffffffffffffffffffffffff021916908373ffffffffffffffffffffffffffffffffffffffff1602179055506020820151816001015f6101000a81548173ffffffffffffffffffffffffffffffffffffffff021916908373ffffffffffffffffffffffffffffffffffffffff16021790555060408201518160020155606082015181600301556080820151816004019081610a0291906112f1565b5060a0820151816005015f6101000a81548160ff0219169083151502179055509050507fc4a3de8f8e1b004881a4dcb1466a95aea964d9016dc6cbaadc161da2487a440281338542604051610a5a94939291906113c0565b60405180910390a1505050565b828054828255905f5260205f20908101928215610aad579160200282015b82811115610aac578251829081610a9c91906112f1565b5091602001919060010190610a85565b5b509050610aba9190610abe565b5090565b5b80821115610add575f8181610ad49190610ae1565b50600101610abf565b5090565b508054610aed90611124565b5f825580601f10610afe5750610b1b565b601f0160209004905f5260205f2090810190610b1a9190610b1e565b5b50565b5b80821115610b35575f815f905550600101610b1f565b5090565b5f604051905090565b5f80fd5b5f80fd5b5f73ffffffffffffffffffffffffffffffffffffffff82169050919050565b5f610b7382610b4a565b9050919050565b610b8381610b69565b8114610b8d575f80fd5b50565b5f81359050610b9e81610b7a565b92915050565b5f60208284031215610bb957610bb8610b42565b5b5f610bc684828501610b90565b91505092915050565b5f8115159050919050565b610be381610bcf565b82525050565b610bf281610b69565b82525050565b5f819050919050565b610c0a81610bf8565b82525050565b5f606082019050610c235f830186610bda565b610c306020830185610be9565b610c3d6040830184610c01565b949350505050565b610c4e81610bf8565b8114610c58575f80fd5b50565b5f81359050610c6981610c45565b92915050565b5f60208284031215610c8457610c83610b42565b5b5f610c9184828501610c5b565b91505092915050565b5f80fd5b5f601f19601f8301169050919050565b7f4e487b71000000000000000000000000000000000000000000000000000000005f52604160045260245ffd5b610ce482610c9e565b810181811067ffffffffffffffff82111715610d0357610d02610cae565b5b80604052505050565b5f610d15610b39565b9050610d218282610cdb565b919050565b5f67ffffffffffffffff821115610d4057610d3f610cae565b5b602082029050602081019050919050565b5f80fd5b5f80fd5b5f67ffffffffffffffff821115610d7357610d72610cae565b5b610d7c82610c9e565b9050602081019050919050565b828183375f83830152505050565b5f610da9610da484610d59565b610d0c565b905082815260208101848484011115610dc557610dc4610d55565b5b610dd0848285610d89565b509392505050565b5f82601f830112610dec57610deb610c9a565b5b8135610dfc848260208601610d97565b91505092915050565b5f610e17610e1284610d26565b610d0c565b90508083825260208201905060208402830185811115610e3a57610e39610d51565b5b835b81811015610e8157803567ffffffffffffffff811115610e5f57610e5e610c9a565b5b808601610e6c8982610dd8565b85526020850194505050602081019050610e3c565b5050509392505050565b5f82601f830112610e9f57610e9e610c9a565b5b8135610eaf848260208601610e05565b91505092915050565b5f60208284031215610ecd57610ecc610b42565b5b5f82013567ffffffffffffffff811115610eea57610ee9610b46565b5b610ef684828501610e8b565b91505092915050565b5f8060408385031215610f1557610f14610b42565b5b5f610f2285828601610b90565b925050602083013567ffffffffffffffff811115610f4357610f42610b46565b5b610f4f85828601610dd8565b9150509250929050565b5f82825260208201905092915050565b7f53657373696f6e206973206e6f742061637469766500000000000000000000005f82015250565b5f610f9d601583610f59565b9150610fa882610f69565b602082019050919050565b5f6020820190508181035f830152610fca81610f91565b9050919050565b5f604082019050610fe45f830185610c01565b610ff16020830184610c01565b9392505050565b5f60208201905061100b5f830184610be9565b92915050565b7f426f7468207065657273206d757374206265206f6e6c696e65000000000000005f82015250565b5f611045601983610f59565b915061105082611011565b602082019050919050565b5f6020820190508181035f83015261107281611039565b9050919050565b7f4e487b71000000000000000000000000000000000000000000000000000000005f52601160045260245ffd5b5f6110b082610bf8565b91507fffffffffffffffffffffffffffffffffffffffffffffffffffffffffffffffff82036110e2576110e1611079565b5b600182019050919050565b5f81519050919050565b7f4e487b71000000000000000000000000000000000000000000000000000000005f52602260045260245ffd5b5f600282049050600182168061113b57607f821691505b60208210810361114e5761114d6110f7565b5b50919050565b5f819050815f5260205f209050919050565b5f6020601f8301049050919050565b5f82821b905092915050565b5f600883026111b07fffffffffffffffffffffffffffffffffffffffffffffffffffffffffffffffff82611175565b6111ba8683611175565b95508019841693508086168417925050509392505050565b5f819050919050565b5f6111f56111f06111eb84610bf8565b6111d2565b610bf8565b9050919050565b5f819050919050565b61120e836111db565b61122261121a826111fc565b848454611181565b825550505050565b5f90565b61123661122a565b611241818484611205565b505050565b5b81811015611264576112595f8261122e565b600181019050611247565b5050565b601f8211156112a95761127a81611154565b61128384611166565b81016020851015611292578190505b6112a661129e85611166565b830182611246565b50505b505050565b5f82821c905092915050565b5f6112c95f19846008026112ae565b1980831691505092915050565b5f6112e183836112ba565b9150826002028217905092915050565b6112fa826110ed565b67ffffffffffffffff81111561131357611312610cae565b5b61131d8254611124565b611328828285611268565b5f60209050601f831160018114611359575f8415611347578287015190505b61135185826112d6565b8655506113b8565b601f19841661136786611154565b5f5b8281101561138e57848901518255600182019150602085019450602081019050611369565b868310156113ab57848901516113a7601f8916826112ba565b8355505b6001600288020188555050505b505050505050565b5f6080820190506113d35f830187610c01565b6113e06020830186610be9565b6113ed6040830185610be9565b6113fa6060830184610c01565b9594505050505056fea2646970667358221220ef2975a9720eed741ab68bf9993a8f1fc60bf5b57c81d1b94a2a76f026f567be64736f6c63430008180033",
					"opcodes": "PUSH1 0x80 PUSH1 0x40 MSTORE CALLVALUE DUP1 ISZERO PUSH2 0xF JUMPI PUSH0 DUP1 REVERT JUMPDEST POP PUSH2 0x1439 DUP1 PUSH2 0x1D PUSH0 CODECOPY PUSH0 RETURN INVALID PUSH1 0x80 PUSH1 0x40 MSTORE CALLVALUE DUP1 ISZERO PUSH2 0xF JUMPI PUSH0 DUP1 REVERT JUMPDEST POP PUSH1 0x4 CALLDATASIZE LT PUSH2 0x55 JUMPI PUSH0 CALLDATALOAD PUSH1 0xE0 SHR DUP1 PUSH4 0x1C8590BA EQ PUSH2 0x59 JUMPI DUP1 PUSH4 0x26CC5583 EQ PUSH2 0x8B JUMPI DUP1 PUSH4 0x86815A25 EQ PUSH2 0xA7 JUMPI DUP1 PUSH4 0xD7338DDA EQ PUSH2 0xB1 JUMPI DUP1 PUSH4 0xE31599AE EQ PUSH2 0xCD JUMPI JUMPDEST PUSH0 DUP1 REVERT JUMPDEST PUSH2 0x73 PUSH1 0x4 DUP1 CALLDATASIZE SUB DUP2 ADD SWAP1 PUSH2 0x6E SWAP2 SWAP1 PUSH2 0xBA4 JUMP JUMPDEST PUSH2 0xE9 JUMP JUMPDEST PUSH1 0x40 MLOAD PUSH2 0x82 SWAP4 SWAP3 SWAP2 SWAP1 PUSH2 0xC10 JUMP JUMPDEST PUSH1 0x40 MLOAD DUP1 SWAP2 SUB SWAP1 RETURN JUMPDEST PUSH2 0xA5 PUSH1 0x4 DUP1 CALLDATASIZE SUB DUP2 ADD SWAP1 PUSH2 0xA0 SWAP2 SWAP1 PUSH2 0xC6F JUMP JUMPDEST PUSH2 0x139 JUMP JUMPDEST STOP JUMPDEST PUSH2 0xAF PUSH2 0x403 JUMP JUMPDEST STOP JUMPDEST PUSH2 0xCB PUSH1 0x4 DUP1 CALLDATASIZE SUB DUP2 ADD SWAP1 PUSH2 0xC6 SWAP2 SWAP1 PUSH2 0xEB8 JUMP JUMPDEST PUSH2 0x491 JUMP JUMPDEST STOP JUMPDEST PUSH2 0xE7 PUSH1 0x4 DUP1 CALLDATASIZE SUB DUP2 ADD SWAP1 PUSH2 0xE2 SWAP2 SWAP1 PUSH2 0xEFF JUMP JUMPDEST PUSH2 0x5F2 JUMP JUMPDEST STOP JUMPDEST PUSH0 PUSH1 0x20 MSTORE DUP1 PUSH0 MSTORE PUSH1 0x40 PUSH0 KECCAK256 PUSH0 SWAP2 POP SWAP1 POP DUP1 PUSH0 ADD PUSH0 SWAP1 SLOAD SWAP1 PUSH2 0x100 EXP SWAP1 DIV PUSH1 0xFF AND SWAP1 DUP1 PUSH0 ADD PUSH1 0x1 SWAP1 SLOAD SWAP1 PUSH2 0x100 EXP SWAP1 DIV PUSH20 0xFFFFFFFFFFFFFFFFFFFFFFFFFFFFFFFFFFFFFFFF AND SWAP1 DUP1 PUSH1 0x3 ADD SLOAD SWAP1 POP DUP4 JUMP JUMPDEST PUSH0 DUP1 CALLER PUSH20 0xFFFFFFFFFFFFFFFFFFFFFFFFFFFFFFFFFFFFFFFF AND PUSH20 0xFFFFFFFFFFFFFFFFFFFFFFFFFFFFFFFFFFFFFFFF AND DUP2 MSTORE PUSH1 0x20 ADD SWAP1 DUP2 MSTORE PUSH1 0x20 ADD PUSH0 KECCAK256 PUSH1 0x2 ADD PUSH0 DUP3 DUP2 MSTORE PUSH1 0x20 ADD SWAP1 DUP2 MSTORE PUSH1 0x20 ADD PUSH0 KECCAK256 PUSH1 0x5 ADD PUSH0 SWAP1 SLOAD SWAP1 PUSH2 0x100 EXP SWAP1 DIV PUSH1 0xFF AND PUSH2 0x1D6 JUMPI PUSH1 0x40 MLOAD PUSH32 0x8C379A000000000000000000000000000000000000000000000000000000000 DUP2 MSTORE PUSH1 0x4 ADD PUSH2 0x1CD SWAP1 PUSH2 0xFB3 JUMP JUMPDEST PUSH1 0x40 MLOAD DUP1 SWAP2 SUB SWAP1 REVERT JUMPDEST PUSH0 DUP1 PUSH0 CALLER PUSH20 0xFFFFFFFFFFFFFFFFFFFFFFFFFFFFFFFFFFFFFFFF AND PUSH20 0xFFFFFFFFFFFFFFFFFFFFFFFFFFFFFFFFFFFFFFFF AND DUP2 MSTORE PUSH1 0x20 ADD SWAP1 DUP2 MSTORE PUSH1 0x20 ADD PUSH0 KECCAK256 PUSH1 0x2 ADD PUSH0 DUP4 DUP2 MSTORE PUSH1 0x20 ADD SWAP1 DUP2 MSTORE PUSH1 0x20 ADD PUSH0 KECCAK256 PUSH1 0x5 ADD PUSH0 PUSH2 0x100 EXP DUP2 SLOAD DUP2 PUSH1 0xFF MUL NOT AND SWAP1 DUP4 ISZERO ISZERO MUL OR SWAP1 SSTORE POP TIMESTAMP PUSH0 DUP1 CALLER PUSH20 0xFFFFFFFFFFFFFFFFFFFFFFFFFFFFFFFFFFFFFFFF AND PUSH20 0xFFFFFFFFFFFFFFFFFFFFFFFFFFFFFFFFFFFFFFFF AND DUP2 MSTORE PUSH1 0x20 ADD SWAP1 DUP2 MSTORE PUSH1 0x20 ADD PUSH0 KECCAK256 PUSH1 0x2 ADD PUSH0 DUP4 DUP2 MSTORE PUSH1 0x20 ADD SWAP1 DUP2 MSTORE PUSH1 0x20 ADD PUSH0 KECCAK256 PUSH1 0x3 ADD DUP2 SWAP1 SSTORE POP PUSH0 DUP1 PUSH0 CALLER PUSH20 0xFFFFFFFFFFFFFFFFFFFFFFFFFFFFFFFFFFFFFFFF AND PUSH20 0xFFFFFFFFFFFFFFFFFFFFFFFFFFFFFFFFFFFFFFFF AND DUP2 MSTORE PUSH1 0x20 ADD SWAP1 DUP2 MSTORE PUSH1 0x20 ADD PUSH0 KECCAK256 PUSH1 0x2 ADD PUSH0 DUP4 DUP2 MSTORE PUSH1 0x20 ADD SWAP1 DUP2 MSTORE PUSH1 0x20 ADD PUSH0 KECCAK256 PUSH1 0x1 ADD PUSH0 SWAP1 SLOAD SWAP1 PUSH2 0x100 EXP SWAP1 DIV PUSH20 0xFFFFFFFFFFFFFFFFFFFFFFFFFFFFFFFFFFFFFFFF AND SWAP1 POP PUSH0 DUP1 PUSH0 DUP4 PUSH20 0xFFFFFFFFFFFFFFFFFFFFFFFFFFFFFFFFFFFFFFFF AND PUSH20 0xFFFFFFFFFFFFFFFFFFFFFFFFFFFFFFFFFFFFFFFF AND DUP2 MSTORE PUSH1 0x20 ADD SWAP1 DUP2 MSTORE PUSH1 0x20 ADD PUSH0 KECCAK256 PUSH1 0x2 ADD PUSH0 DUP5 DUP2 MSTORE PUSH1 0x20 ADD SWAP1 DUP2 MSTORE PUSH1 0x20 ADD PUSH0 KECCAK256 PUSH1 0x5 ADD PUSH0 PUSH2 0x100 EXP DUP2 SLOAD DUP2 PUSH1 0xFF MUL NOT AND SWAP1 DUP4 ISZERO ISZERO MUL OR SWAP1 SSTORE POP TIMESTAMP PUSH0 DUP1 DUP4 PUSH20 0xFFFFFFFFFFFFFFFFFFFFFFFFFFFFFFFFFFFFFFFF AND PUSH20 0xFFFFFFFFFFFFFFFFFFFFFFFFFFFFFFFFFFFFFFFF AND DUP2 MSTORE PUSH1 0x20 ADD SWAP1 DUP2 MSTORE PUSH1 0x20 ADD PUSH0 KECCAK256 PUSH1 0x2 ADD PUSH0 DUP5 DUP2 MSTORE PUSH1 0x20 ADD SWAP1 DUP2 MSTORE PUSH1 0x20 ADD PUSH0 KECCAK256 PUSH1 0x3 ADD DUP2 SWAP1 SSTORE POP PUSH32 0xE4BDF3C3959E99D1EE4E5254BB9290BC5F6E3DEFB54820041D5245054448BB73 DUP3 TIMESTAMP PUSH1 0x40 MLOAD PUSH2 0x3F7 SWAP3 SWAP2 SWAP1 PUSH2 0xFD1 JUMP JUMPDEST PUSH1 0x40 MLOAD DUP1 SWAP2 SUB SWAP1 LOG1 POP POP JUMP JUMPDEST PUSH0 DUP1 PUSH0 CALLER PUSH20 0xFFFFFFFFFFFFFFFFFFFFFFFFFFFFFFFFFFFFFFFF AND PUSH20 0xFFFFFFFFFFFFFFFFFFFFFFFFFFFFFFFFFFFFFFFF AND DUP2 MSTORE PUSH1 0x20 ADD SWAP1 DUP2 MSTORE PUSH1 0x20 ADD PUSH0 KECCAK256 PUSH0 ADD PUSH0 PUSH2 0x100 EXP DUP2 SLOAD DUP2 PUSH1 0xFF MUL NOT AND SWAP1 DUP4 ISZERO ISZERO MUL OR SWAP1 SSTORE POP PUSH32 0xCB01BE1350504F575A8D64E20D60D1229B82390E20A11D02B87D05D55BC3BC0F CALLER PUSH1 0x40 MLOAD PUSH2 0x487 SWAP2 SWAP1 PUSH2 0xFF8 JUMP JUMPDEST PUSH1 0x40 MLOAD DUP1 SWAP2 SUB SWAP1 LOG1 JUMP JUMPDEST PUSH1 0x1 PUSH0 DUP1 CALLER PUSH20 0xFFFFFFFFFFFFFFFFFFFFFFFFFFFFFFFFFFFFFFFF AND PUSH20 0xFFFFFFFFFFFFFFFFFFFFFFFFFFFFFFFFFFFFFFFF AND DUP2 MSTORE PUSH1 0x20 ADD SWAP1 DUP2 MSTORE PUSH1 0x20 ADD PUSH0 KECCAK256 PUSH0 ADD PUSH0 PUSH2 0x100 EXP DUP2 SLOAD DUP2 PUSH1 0xFF MUL NOT AND SWAP1 DUP4 ISZERO ISZERO MUL OR SWAP1 SSTORE POP CALLER PUSH0 DUP1 CALLER PUSH20 0xFFFFFFFFFFFFFFFFFFFFFFFFFFFFFFFFFFFFFFFF AND PUSH20 0xFFFFFFFFFFFFFFFFFFFFFFFFFFFFFFFFFFFFFFFF AND DUP2 MSTORE PUSH1 0x20 ADD SWAP1 DUP2 MSTORE PUSH1 0x20 ADD PUSH0 KECCAK256 PUSH0 ADD PUSH1 0x1 PUSH2 0x100 EXP DUP2 SLOAD DUP2 PUSH20 0xFFFFFFFFFFFFFFFFFFFFFFFFFFFFFFFFFFFFFFFF MUL NOT AND SWAP1 DUP4 PUSH20 0xFFFFFFFFFFFFFFFFFFFFFFFFFFFFFFFFFFFFFFFF AND MUL OR SWAP1 SSTORE POP DUP1 PUSH0 DUP1 CALLER PUSH20 0xFFFFFFFFFFFFFFFFFFFFFFFFFFFFFFFFFFFFFFFF AND PUSH20 0xFFFFFFFFFFFFFFFFFFFFFFFFFFFFFFFFFFFFFFFF AND DUP2 MSTORE PUSH1 0x20 ADD SWAP1 DUP2 MSTORE PUSH1 0x20 ADD PUSH0 KECCAK256 PUSH1 0x1 ADD SWAP1 DUP1 MLOAD SWAP1 PUSH1 0x20 ADD SWAP1 PUSH2 0x5B7 SWAP3 SWAP2 SWAP1 PUSH2 0xA67 JUMP JUMPDEST POP PUSH32 0xCEC2B9EFAD72FC6D5E9251A23FC0A71291337AE547BA85241A8BF80BB2C703E3 CALLER PUSH1 0x40 MLOAD PUSH2 0x5E7 SWAP2 SWAP1 PUSH2 0xFF8 JUMP JUMPDEST PUSH1 0x40 MLOAD DUP1 SWAP2 SUB SWAP1 LOG1 POP JUMP JUMPDEST PUSH0 DUP1 CALLER PUSH20 0xFFFFFFFFFFFFFFFFFFFFFFFFFFFFFFFFFFFFFFFF AND PUSH20 0xFFFFFFFFFFFFFFFFFFFFFFFFFFFFFFFFFFFFFFFF AND DUP2 MSTORE PUSH1 0x20 ADD SWAP1 DUP2 MSTORE PUSH1 0x20 ADD PUSH0 KECCAK256 PUSH0 ADD PUSH0 SWAP1 SLOAD SWAP1 PUSH2 0x100 EXP SWAP1 DIV PUSH1 0xFF AND DUP1 ISZERO PUSH2 0x690 JUMPI POP PUSH0 DUP1 DUP4 PUSH20 0xFFFFFFFFFFFFFFFFFFFFFFFFFFFFFFFFFFFFFFFF AND PUSH20 0xFFFFFFFFFFFFFFFFFFFFFFFFFFFFFFFFFFFFFFFF AND DUP2 MSTORE PUSH1 0x20 ADD SWAP1 DUP2 MSTORE PUSH1 0x20 ADD PUSH0 KECCAK256 PUSH0 ADD PUSH0 SWAP1 SLOAD SWAP1 PUSH2 0x100 EXP SWAP1 DIV PUSH1 0xFF AND JUMPDEST PUSH2 0x6CF JUMPI PUSH1 0x40 MLOAD PUSH32 0x8C379A000000000000000000000000000000000000000000000000000000000 DUP2 MSTORE PUSH1 0x4 ADD PUSH2 0x6C6 SWAP1 PUSH2 0x105B JUMP JUMPDEST PUSH1 0x40 MLOAD DUP1 SWAP2 SUB SWAP1 REVERT JUMPDEST PUSH0 DUP1 PUSH0 CALLER PUSH20 0xFFFFFFFFFFFFFFFFFFFFFFFFFFFFFFFFFFFFFFFF AND PUSH20 0xFFFFFFFFFFFFFFFFFFFFFFFFFFFFFFFFFFFFFFFF AND DUP2 MSTORE PUSH1 0x20 ADD SWAP1 DUP2 MSTORE PUSH1 0x20 ADD PUSH0 KECCAK256 PUSH1 0x3 ADD PUSH0 DUP2 SLOAD DUP1 SWAP3 SWAP2 SWAP1 PUSH2 0x71F SWAP1 PUSH2 0x10A6 JUMP JUMPDEST SWAP2 SWAP1 POP SSTORE SWAP1 POP PUSH1 0x40 MLOAD DUP1 PUSH1 0xC0 ADD PUSH1 0x40 MSTORE DUP1 CALLER PUSH20 0xFFFFFFFFFFFFFFFFFFFFFFFFFFFFFFFFFFFFFFFF AND DUP2 MSTORE PUSH1 0x20 ADD DUP5 PUSH20 0xFFFFFFFFFFFFFFFFFFFFFFFFFFFFFFFFFFFFFFFF AND DUP2 MSTORE PUSH1 0x20 ADD TIMESTAMP DUP2 MSTORE PUSH1 0x20 ADD PUSH0 DUP2 MSTORE PUSH1 0x20 ADD DUP4 DUP2 MSTORE PUSH1 0x20 ADD PUSH1 0x1 ISZERO ISZERO DUP2 MSTORE POP PUSH0 DUP1 CALLER PUSH20 0xFFFFFFFFFFFFFFFFFFFFFFFFFFFFFFFFFFFFFFFF AND PUSH20 0xFFFFFFFFFFFFFFFFFFFFFFFFFFFFFFFFFFFFFFFF AND DUP2 MSTORE PUSH1 0x20 ADD SWAP1 DUP2 MSTORE PUSH1 0x20 ADD PUSH0 KECCAK256 PUSH1 0x2 ADD PUSH0 DUP4 DUP2 MSTORE PUSH1 0x20 ADD SWAP1 DUP2 MSTORE PUSH1 0x20 ADD PUSH0 KECCAK256 PUSH0 DUP3 ADD MLOAD DUP2 PUSH0 ADD PUSH0 PUSH2 0x100 EXP DUP2 SLOAD DUP2 PUSH20 0xFFFFFFFFFFFFFFFFFFFFFFFFFFFFFFFFFFFFFFFF MUL NOT AND SWAP1 DUP4 PUSH20 0xFFFFFFFFFFFFFFFFFFFFFFFFFFFFFFFFFFFFFFFF AND MUL OR SWAP1 SSTORE POP PUSH1 0x20 DUP3 ADD MLOAD DUP2 PUSH1 0x1 ADD PUSH0 PUSH2 0x100 EXP DUP2 SLOAD DUP2 PUSH20 0xFFFFFFFFFFFFFFFFFFFFFFFFFFFFFFFFFFFFFFFF MUL NOT AND SWAP1 DUP4 PUSH20 0xFFFFFFFFFFFFFFFFFFFFFFFFFFFFFFFFFFFFFFFF AND MUL OR SWAP1 SSTORE POP PUSH1 0x40 DUP3 ADD MLOAD DUP2 PUSH1 0x2 ADD SSTORE PUSH1 0x60 DUP3 ADD MLOAD DUP2 PUSH1 0x3 ADD SSTORE PUSH1 0x80 DUP3 ADD MLOAD DUP2 PUSH1 0x4 ADD SWAP1 DUP2 PUSH2 0x882 SWAP2 SWAP1 PUSH2 0x12F1 JUMP JUMPDEST POP PUSH1 0xA0 DUP3 ADD MLOAD DUP2 PUSH1 0x5 ADD PUSH0 PUSH2 0x100 EXP DUP2 SLOAD DUP2 PUSH1 0xFF MUL NOT AND SWAP1 DUP4 ISZERO ISZERO MUL OR SWAP1 SSTORE POP SWAP1 POP POP PUSH1 0x40 MLOAD DUP1 PUSH1 0xC0 ADD PUSH1 0x40 MSTORE DUP1 CALLER PUSH20 0xFFFFFFFFFFFFFFFFFFFFFFFFFFFFFFFFFFFFFFFF AND DUP2 MSTORE PUSH1 0x20 ADD DUP5 PUSH20 0xFFFFFFFFFFFFFFFFFFFFFFFFFFFFFFFFFFFFFFFF AND DUP2 MSTORE PUSH1 0x20 ADD TIMESTAMP DUP2 MSTORE PUSH1 0x20 ADD PUSH0 DUP2 MSTORE PUSH1 0x20 ADD DUP4 DUP2 MSTORE PUSH1 0x20 ADD PUSH1 0x1 ISZERO ISZERO DUP2 MSTORE POP PUSH0 DUP1 DUP6 PUSH20 0xFFFFFFFFFFFFFFFFFFFFFFFFFFFFFFFFFFFFFFFF AND PUSH20 0xFFFFFFFFFFFFFFFFFFFFFFFFFFFFFFFFFFFFFFFF AND DUP2 MSTORE PUSH1 0x20 ADD SWAP1 DUP2 MSTORE PUSH1 0x20 ADD PUSH0 KECCAK256 PUSH1 0x2 ADD PUSH0 DUP4 DUP2 MSTORE PUSH1 0x20 ADD SWAP1 DUP2 MSTORE PUSH1 0x20 ADD PUSH0 KECCAK256 PUSH0 DUP3 ADD MLOAD DUP2 PUSH0 ADD PUSH0 PUSH2 0x100 EXP DUP2 SLOAD DUP2 PUSH20 0xFFFFFFFFFFFFFFFFFFFFFFFFFFFFFFFFFFFFFFFF MUL NOT AND SWAP1 DUP4 PUSH20 0xFFFFFFFFFFFFFFFFFFFFFFFFFFFFFFFFFFFFFFFF AND MUL OR SWAP1 SSTORE POP PUSH1 0x20 DUP3 ADD MLOAD DUP2 PUSH1 0x1 ADD PUSH0 PUSH2 0x100 EXP DUP2 SLOAD DUP2 PUSH20 0xFFFFFFFFFFFFFFFFFFFFFFFFFFFFFFFFFFFFFFFF MUL NOT AND SWAP1 DUP4 PUSH20 0xFFFFFFFFFFFFFFFFFFFFFFFFFFFFFFFFFFFFFFFF AND MUL OR SWAP1 SSTORE POP PUSH1 0x40 DUP3 ADD MLOAD DUP2 PUSH1 0x2 ADD SSTORE PUSH1 0x60 DUP3 ADD MLOAD DUP2 PUSH1 0x3 ADD SSTORE PUSH1 0x80 DUP3 ADD MLOAD DUP2 PUSH1 0x4 ADD SWAP1 DUP2 PUSH2 0xA02 SWAP2 SWAP1 PUSH2 0x12F1 JUMP JUMPDEST POP PUSH1 0xA0 DUP3 ADD MLOAD DUP2 PUSH1 0x5 ADD PUSH0 PUSH2 0x100 EXP DUP2 SLOAD DUP2 PUSH1 0xFF MUL NOT AND SWAP1 DUP4 ISZERO ISZERO MUL OR SWAP1 SSTORE POP SWAP1 POP POP PUSH32 0xC4A3DE8F8E1B004881A4DCB1466A95AEA964D9016DC6CBAADC161DA2487A4402 DUP2 CALLER DUP6 TIMESTAMP PUSH1 0x40 MLOAD PUSH2 0xA5A SWAP5 SWAP4 SWAP3 SWAP2 SWAP1 PUSH2 0x13C0 JUMP JUMPDEST PUSH1 0x40 MLOAD DUP1 SWAP2 SUB SWAP1 LOG1 POP POP POP JUMP JUMPDEST DUP3 DUP1 SLOAD DUP3 DUP3 SSTORE SWAP1 PUSH0 MSTORE PUSH1 0x20 PUSH0 KECCAK256 SWAP1 DUP2 ADD SWAP3 DUP3 ISZERO PUSH2 0xAAD JUMPI SWAP2 PUSH1 0x20 MUL DUP3 ADD JUMPDEST DUP3 DUP2 GT ISZERO PUSH2 0xAAC JUMPI DUP3 MLOAD DUP3 SWAP1 DUP2 PUSH2 0xA9C SWAP2 SWAP1 PUSH2 0x12F1 JUMP JUMPDEST POP SWAP2 PUSH1 0x20 ADD SWAP2 SWAP1 PUSH1 0x1 ADD SWAP1 PUSH2 0xA85 JUMP JUMPDEST JUMPDEST POP SWAP1 POP PUSH2 0xABA SWAP2 SWAP1 PUSH2 0xABE JUMP JUMPDEST POP SWAP1 JUMP JUMPDEST JUMPDEST DUP1 DUP3 GT ISZERO PUSH2 0xADD JUMPI PUSH0 DUP2 DUP2 PUSH2 0xAD4 SWAP2 SWAP1 PUSH2 0xAE1 JUMP JUMPDEST POP PUSH1 0x1 ADD PUSH2 0xABF JUMP JUMPDEST POP SWAP1 JUMP JUMPDEST POP DUP1 SLOAD PUSH2 0xAED SWAP1 PUSH2 0x1124 JUMP JUMPDEST PUSH0 DUP3 SSTORE DUP1 PUSH1 0x1F LT PUSH2 0xAFE JUMPI POP PUSH2 0xB1B JUMP JUMPDEST PUSH1 0x1F ADD PUSH1 0x20 SWAP1 DIV SWAP1 PUSH0 MSTORE PUSH1 0x20 PUSH0 KECCAK256 SWAP1 DUP2 ADD SWAP1 PUSH2 0xB1A SWAP2 SWAP1 PUSH2 0xB1E JUMP JUMPDEST JUMPDEST POP JUMP JUMPDEST JUMPDEST DUP1 DUP3 GT ISZERO PUSH2 0xB35 JUMPI PUSH0 DUP2 PUSH0 SWAP1 SSTORE POP PUSH1 0x1 ADD PUSH2 0xB1F JUMP JUMPDEST POP SWAP1 JUMP JUMPDEST PUSH0 PUSH1 0x40 MLOAD SWAP1 POP SWAP1 JUMP JUMPDEST PUSH0 DUP1 REVERT JUMPDEST PUSH0 DUP1 REVERT JUMPDEST PUSH0 PUSH20 0xFFFFFFFFFFFFFFFFFFFFFFFFFFFFFFFFFFFFFFFF DUP3 AND SWAP1 POP SWAP2 SWAP1 POP JUMP JUMPDEST PUSH0 PUSH2 0xB73 DUP3 PUSH2 0xB4A JUMP JUMPDEST SWAP1 POP SWAP2 SWAP1 POP JUMP JUMPDEST PUSH2 0xB83 DUP2 PUSH2 0xB69 JUMP JUMPDEST DUP2 EQ PUSH2 0xB8D JUMPI PUSH0 DUP1 REVERT JUMPDEST POP JUMP JUMPDEST PUSH0 DUP2 CALLDATALOAD SWAP1 POP PUSH2 0xB9E DUP2 PUSH2 0xB7A JUMP JUMPDEST SWAP3 SWAP2 POP POP JUMP JUMPDEST PUSH0 PUSH1 0x20 DUP3 DUP5 SUB SLT ISZERO PUSH2 0xBB9 JUMPI PUSH2 0xBB8 PUSH2 0xB42 JUMP JUMPDEST JUMPDEST PUSH0 PUSH2 0xBC6 DUP5 DUP3 DUP6 ADD PUSH2 0xB90 JUMP JUMPDEST SWAP2 POP POP SWAP3 SWAP2 POP POP JUMP JUMPDEST PUSH0 DUP2 ISZERO ISZERO SWAP1 POP SWAP2 SWAP1 POP JUMP JUMPDEST PUSH2 0xBE3 DUP2 PUSH2 0xBCF JUMP JUMPDEST DUP3 MSTORE POP POP JUMP JUMPDEST PUSH2 0xBF2 DUP2 PUSH2 0xB69 JUMP JUMPDEST DUP3 MSTORE POP POP JUMP JUMPDEST PUSH0 DUP2 SWAP1 POP SWAP2 SWAP1 POP JUMP JUMPDEST PUSH2 0xC0A DUP2 PUSH2 0xBF8 JUMP JUMPDEST DUP3 MSTORE POP POP JUMP JUMPDEST PUSH0 PUSH1 0x60 DUP3 ADD SWAP1 POP PUSH2 0xC23 PUSH0 DUP4 ADD DUP7 PUSH2 0xBDA JUMP JUMPDEST PUSH2 0xC30 PUSH1 0x20 DUP4 ADD DUP6 PUSH2 0xBE9 JUMP JUMPDEST PUSH2 0xC3D PUSH1 0x40 DUP4 ADD DUP5 PUSH2 0xC01 JUMP JUMPDEST SWAP5 SWAP4 POP POP POP POP JUMP JUMPDEST PUSH2 0xC4E DUP2 PUSH2 0xBF8 JUMP JUMPDEST DUP2 EQ PUSH2 0xC58 JUMPI PUSH0 DUP1 REVERT JUMPDEST POP JUMP JUMPDEST PUSH0 DUP2 CALLDATALOAD SWAP1 POP PUSH2 0xC69 DUP2 PUSH2 0xC45 JUMP JUMPDEST SWAP3 SWAP2 POP POP JUMP JUMPDEST PUSH0 PUSH1 0x20 DUP3 DUP5 SUB SLT ISZERO PUSH2 0xC84 JUMPI PUSH2 0xC83 PUSH2 0xB42 JUMP JUMPDEST JUMPDEST PUSH0 PUSH2 0xC91 DUP5 DUP3 DUP6 ADD PUSH2 0xC5B JUMP JUMPDEST SWAP2 POP POP SWAP3 SWAP2 POP POP JUMP JUMPDEST PUSH0 DUP1 REVERT JUMPDEST PUSH0 PUSH1 0x1F NOT PUSH1 0x1F DUP4 ADD AND SWAP1 POP SWAP2 SWAP1 POP JUMP JUMPDEST PUSH32 0x4E487B7100000000000000000000000000000000000000000000000000000000 PUSH0 MSTORE PUSH1 0x41 PUSH1 0x4 MSTORE PUSH1 0x24 PUSH0 REVERT JUMPDEST PUSH2 0xCE4 DUP3 PUSH2 0xC9E JUMP JUMPDEST DUP2 ADD DUP2 DUP2 LT PUSH8 0xFFFFFFFFFFFFFFFF DUP3 GT OR ISZERO PUSH2 0xD03 JUMPI PUSH2 0xD02 PUSH2 0xCAE JUMP JUMPDEST JUMPDEST DUP1 PUSH1 0x40 MSTORE POP POP POP JUMP JUMPDEST PUSH0 PUSH2 0xD15 PUSH2 0xB39 JUMP JUMPDEST SWAP1 POP PUSH2 0xD21 DUP3 DUP3 PUSH2 0xCDB JUMP JUMPDEST SWAP2 SWAP1 POP JUMP JUMPDEST PUSH0 PUSH8 0xFFFFFFFFFFFFFFFF DUP3 GT ISZERO PUSH2 0xD40 JUMPI PUSH2 0xD3F PUSH2 0xCAE JUMP JUMPDEST JUMPDEST PUSH1 0x20 DUP3 MUL SWAP1 POP PUSH1 0x20 DUP2 ADD SWAP1 POP SWAP2 SWAP1 POP JUMP JUMPDEST PUSH0 DUP1 REVERT JUMPDEST PUSH0 DUP1 REVERT JUMPDEST PUSH0 PUSH8 0xFFFFFFFFFFFFFFFF DUP3 GT ISZERO PUSH2 0xD73 JUMPI PUSH2 0xD72 PUSH2 0xCAE JUMP JUMPDEST JUMPDEST PUSH2 0xD7C DUP3 PUSH2 0xC9E JUMP JUMPDEST SWAP1 POP PUSH1 0x20 DUP2 ADD SWAP1 POP SWAP2 SWAP1 POP JUMP JUMPDEST DUP3 DUP2 DUP4 CALLDATACOPY PUSH0 DUP4 DUP4 ADD MSTORE POP POP POP JUMP JUMPDEST PUSH0 PUSH2 0xDA9 PUSH2 0xDA4 DUP5 PUSH2 0xD59 JUMP JUMPDEST PUSH2 0xD0C JUMP JUMPDEST SWAP1 POP DUP3 DUP2 MSTORE PUSH1 0x20 DUP2 ADD DUP5 DUP5 DUP5 ADD GT ISZERO PUSH2 0xDC5 JUMPI PUSH2 0xDC4 PUSH2 0xD55 JUMP JUMPDEST JUMPDEST PUSH2 0xDD0 DUP5 DUP3 DUP6 PUSH2 0xD89 JUMP JUMPDEST POP SWAP4 SWAP3 POP POP POP JUMP JUMPDEST PUSH0 DUP3 PUSH1 0x1F DUP4 ADD SLT PUSH2 0xDEC JUMPI PUSH2 0xDEB PUSH2 0xC9A JUMP JUMPDEST JUMPDEST DUP2 CALLDATALOAD PUSH2 0xDFC DUP5 DUP3 PUSH1 0x20 DUP7 ADD PUSH2 0xD97 JUMP JUMPDEST SWAP2 POP POP SWAP3 SWAP2 POP POP JUMP JUMPDEST PUSH0 PUSH2 0xE17 PUSH2 0xE12 DUP5 PUSH2 0xD26 JUMP JUMPDEST PUSH2 0xD0C JUMP JUMPDEST SWAP1 POP DUP1 DUP4 DUP3 MSTORE PUSH1 0x20 DUP3 ADD SWAP1 POP PUSH1 0x20 DUP5 MUL DUP4 ADD DUP6 DUP2 GT ISZERO PUSH2 0xE3A JUMPI PUSH2 0xE39 PUSH2 0xD51 JUMP JUMPDEST JUMPDEST DUP4 JUMPDEST DUP2 DUP2 LT ISZERO PUSH2 0xE81 JUMPI DUP1 CALLDATALOAD PUSH8 0xFFFFFFFFFFFFFFFF DUP2 GT ISZERO PUSH2 0xE5F JUMPI PUSH2 0xE5E PUSH2 0xC9A JUMP JUMPDEST JUMPDEST DUP1 DUP7 ADD PUSH2 0xE6C DUP10 DUP3 PUSH2 0xDD8 JUMP JUMPDEST DUP6 MSTORE PUSH1 0x20 DUP6 ADD SWAP5 POP POP POP PUSH1 0x20 DUP2 ADD SWAP1 POP PUSH2 0xE3C JUMP JUMPDEST POP POP POP SWAP4 SWAP3 POP POP POP JUMP JUMPDEST PUSH0 DUP3 PUSH1 0x1F DUP4 ADD SLT PUSH2 0xE9F JUMPI PUSH2 0xE9E PUSH2 0xC9A JUMP JUMPDEST JUMPDEST DUP2 CALLDATALOAD PUSH2 0xEAF DUP5 DUP3 PUSH1 0x20 DUP7 ADD PUSH2 0xE05 JUMP JUMPDEST SWAP2 POP POP SWAP3 SWAP2 POP POP JUMP JUMPDEST PUSH0 PUSH1 0x20 DUP3 DUP5 SUB SLT ISZERO PUSH2 0xECD JUMPI PUSH2 0xECC PUSH2 0xB42 JUMP JUMPDEST JUMPDEST PUSH0 DUP3 ADD CALLDATALOAD PUSH8 0xFFFFFFFFFFFFFFFF DUP2 GT ISZERO PUSH2 0xEEA JUMPI PUSH2 0xEE9 PUSH2 0xB46 JUMP JUMPDEST JUMPDEST PUSH2 0xEF6 DUP5 DUP3 DUP6 ADD PUSH2 0xE8B JUMP JUMPDEST SWAP2 POP POP SWAP3 SWAP2 POP POP JUMP JUMPDEST PUSH0 DUP1 PUSH1 0x40 DUP4 DUP6 SUB SLT ISZERO PUSH2 0xF15 JUMPI PUSH2 0xF14 PUSH2 0xB42 JUMP JUMPDEST JUMPDEST PUSH0 PUSH2 0xF22 DUP6 DUP3 DUP7 ADD PUSH2 0xB90 JUMP JUMPDEST SWAP3 POP POP PUSH1 0x20 DUP4 ADD CALLDATALOAD PUSH8 0xFFFFFFFFFFFFFFFF DUP2 GT ISZERO PUSH2 0xF43 JUMPI PUSH2 0xF42 PUSH2 0xB46 JUMP JUMPDEST JUMPDEST PUSH2 0xF4F DUP6 DUP3 DUP7 ADD PUSH2 0xDD8 JUMP JUMPDEST SWAP2 POP POP SWAP3 POP SWAP3 SWAP1 POP JUMP JUMPDEST PUSH0 DUP3 DUP3 MSTORE PUSH1 0x20 DUP3 ADD SWAP1 POP SWAP3 SWAP2 POP POP JUMP JUMPDEST PUSH32 0x53657373696F6E206973206E6F74206163746976650000000000000000000000 PUSH0 DUP3 ADD MSTORE POP JUMP JUMPDEST PUSH0 PUSH2 0xF9D PUSH1 0x15 DUP4 PUSH2 0xF59 JUMP JUMPDEST SWAP2 POP PUSH2 0xFA8 DUP3 PUSH2 0xF69 JUMP JUMPDEST PUSH1 0x20 DUP3 ADD SWAP1 POP SWAP2 SWAP1 POP JUMP JUMPDEST PUSH0 PUSH1 0x20 DUP3 ADD SWAP1 POP DUP2 DUP2 SUB PUSH0 DUP4 ADD MSTORE PUSH2 0xFCA DUP2 PUSH2 0xF91 JUMP JUMPDEST SWAP1 POP SWAP2 SWAP1 POP JUMP JUMPDEST PUSH0 PUSH1 0x40 DUP3 ADD SWAP1 POP PUSH2 0xFE4 PUSH0 DUP4 ADD DUP6 PUSH2 0xC01 JUMP JUMPDEST PUSH2 0xFF1 PUSH1 0x20 DUP4 ADD DUP5 PUSH2 0xC01 JUMP JUMPDEST SWAP4 SWAP3 POP POP POP JUMP JUMPDEST PUSH0 PUSH1 0x20 DUP3 ADD SWAP1 POP PUSH2 0x100B PUSH0 DUP4 ADD DUP5 PUSH2 0xBE9 JUMP JUMPDEST SWAP3 SWAP2 POP POP JUMP JUMPDEST PUSH32 0x426F7468207065657273206D757374206265206F6E6C696E6500000000000000 PUSH0 DUP3 ADD MSTORE POP JUMP JUMPDEST PUSH0 PUSH2 0x1045 PUSH1 0x19 DUP4 PUSH2 0xF59 JUMP JUMPDEST SWAP2 POP PUSH2 0x1050 DUP3 PUSH2 0x1011 JUMP JUMPDEST PUSH1 0x20 DUP3 ADD SWAP1 POP SWAP2 SWAP1 POP JUMP JUMPDEST PUSH0 PUSH1 0x20 DUP3 ADD SWAP1 POP DUP2 DUP2 SUB PUSH0 DUP4 ADD MSTORE PUSH2 0x1072 DUP2 PUSH2 0x1039 JUMP JUMPDEST SWAP1 POP SWAP2 SWAP1 POP JUMP JUMPDEST PUSH32 0x4E487B7100000000000000000000000000000000000000000000000000000000 PUSH0 MSTORE PUSH1 0x11 PUSH1 0x4 MSTORE PUSH1 0x24 PUSH0 REVERT JUMPDEST PUSH0 PUSH2 0x10B0 DUP3 PUSH2 0xBF8 JUMP JUMPDEST SWAP2 POP PUSH32 0xFFFFFFFFFFFFFFFFFFFFFFFFFFFFFFFFFFFFFFFFFFFFFFFFFFFFFFFFFFFFFFFF DUP3 SUB PUSH2 0x10E2 JUMPI PUSH2 0x10E1 PUSH2 0x1079 JUMP JUMPDEST JUMPDEST PUSH1 0x1 DUP3 ADD SWAP1 POP SWAP2 SWAP1 POP JUMP JUMPDEST PUSH0 DUP2 MLOAD SWAP1 POP SWAP2 SWAP1 POP JUMP JUMPDEST PUSH32 0x4E487B7100000000000000000000000000000000000000000000000000000000 PUSH0 MSTORE PUSH1 0x22 PUSH1 0x4 MSTORE PUSH1 0x24 PUSH0 REVERT JUMPDEST PUSH0 PUSH1 0x2 DUP3 DIV SWAP1 POP PUSH1 0x1 DUP3 AND DUP1 PUSH2 0x113B JUMPI PUSH1 0x7F DUP3 AND SWAP2 POP JUMPDEST PUSH1 0x20 DUP3 LT DUP2 SUB PUSH2 0x114E JUMPI PUSH2 0x114D PUSH2 0x10F7 JUMP JUMPDEST JUMPDEST POP SWAP2 SWAP1 POP JUMP JUMPDEST PUSH0 DUP2 SWAP1 POP DUP2 PUSH0 MSTORE PUSH1 0x20 PUSH0 KECCAK256 SWAP1 POP SWAP2 SWAP1 POP JUMP JUMPDEST PUSH0 PUSH1 0x20 PUSH1 0x1F DUP4 ADD DIV SWAP1 POP SWAP2 SWAP1 POP JUMP JUMPDEST PUSH0 DUP3 DUP3 SHL SWAP1 POP SWAP3 SWAP2 POP POP JUMP JUMPDEST PUSH0 PUSH1 0x8 DUP4 MUL PUSH2 0x11B0 PUSH32 0xFFFFFFFFFFFFFFFFFFFFFFFFFFFFFFFFFFFFFFFFFFFFFFFFFFFFFFFFFFFFFFFF DUP3 PUSH2 0x1175 JUMP JUMPDEST PUSH2 0x11BA DUP7 DUP4 PUSH2 0x1175 JUMP JUMPDEST SWAP6 POP DUP1 NOT DUP5 AND SWAP4 POP DUP1 DUP7 AND DUP5 OR SWAP3 POP POP POP SWAP4 SWAP3 POP POP POP JUMP JUMPDEST PUSH0 DUP2 SWAP1 POP SWAP2 SWAP1 POP JUMP JUMPDEST PUSH0 PUSH2 0x11F5 PUSH2 0x11F0 PUSH2 0x11EB DUP5 PUSH2 0xBF8 JUMP JUMPDEST PUSH2 0x11D2 JUMP JUMPDEST PUSH2 0xBF8 JUMP JUMPDEST SWAP1 POP SWAP2 SWAP1 POP JUMP JUMPDEST PUSH0 DUP2 SWAP1 POP SWAP2 SWAP1 POP JUMP JUMPDEST PUSH2 0x120E DUP4 PUSH2 0x11DB JUMP JUMPDEST PUSH2 0x1222 PUSH2 0x121A DUP3 PUSH2 0x11FC JUMP JUMPDEST DUP5 DUP5 SLOAD PUSH2 0x1181 JUMP JUMPDEST DUP3 SSTORE POP POP POP POP JUMP JUMPDEST PUSH0 SWAP1 JUMP JUMPDEST PUSH2 0x1236 PUSH2 0x122A JUMP JUMPDEST PUSH2 0x1241 DUP2 DUP5 DUP5 PUSH2 0x1205 JUMP JUMPDEST POP POP POP JUMP JUMPDEST JUMPDEST DUP2 DUP2 LT ISZERO PUSH2 0x1264 JUMPI PUSH2 0x1259 PUSH0 DUP3 PUSH2 0x122E JUMP JUMPDEST PUSH1 0x1 DUP2 ADD SWAP1 POP PUSH2 0x1247 JUMP JUMPDEST POP POP JUMP JUMPDEST PUSH1 0x1F DUP3 GT ISZERO PUSH2 0x12A9 JUMPI PUSH2 0x127A DUP2 PUSH2 0x1154 JUMP JUMPDEST PUSH2 0x1283 DUP5 PUSH2 0x1166 JUMP JUMPDEST DUP2 ADD PUSH1 0x20 DUP6 LT ISZERO PUSH2 0x1292 JUMPI DUP2 SWAP1 POP JUMPDEST PUSH2 0x12A6 PUSH2 0x129E DUP6 PUSH2 0x1166 JUMP JUMPDEST DUP4 ADD DUP3 PUSH2 0x1246 JUMP JUMPDEST POP POP JUMPDEST POP POP POP JUMP JUMPDEST PUSH0 DUP3 DUP3 SHR SWAP1 POP SWAP3 SWAP2 POP POP JUMP JUMPDEST PUSH0 PUSH2 0x12C9 PUSH0 NOT DUP5 PUSH1 0x8 MUL PUSH2 0x12AE JUMP JUMPDEST NOT DUP1 DUP4 AND SWAP2 POP POP SWAP3 SWAP2 POP POP JUMP JUMPDEST PUSH0 PUSH2 0x12E1 DUP4 DUP4 PUSH2 0x12BA JUMP JUMPDEST SWAP2 POP DUP3 PUSH1 0x2 MUL DUP3 OR SWAP1 POP SWAP3 SWAP2 POP POP JUMP JUMPDEST PUSH2 0x12FA DUP3 PUSH2 0x10ED JUMP JUMPDEST PUSH8 0xFFFFFFFFFFFFFFFF DUP2 GT ISZERO PUSH2 0x1313 JUMPI PUSH2 0x1312 PUSH2 0xCAE JUMP JUMPDEST JUMPDEST PUSH2 0x131D DUP3 SLOAD PUSH2 0x1124 JUMP JUMPDEST PUSH2 0x1328 DUP3 DUP3 DUP6 PUSH2 0x1268 JUMP JUMPDEST PUSH0 PUSH1 0x20 SWAP1 POP PUSH1 0x1F DUP4 GT PUSH1 0x1 DUP2 EQ PUSH2 0x1359 JUMPI PUSH0 DUP5 ISZERO PUSH2 0x1347 JUMPI DUP3 DUP8 ADD MLOAD SWAP1 POP JUMPDEST PUSH2 0x1351 DUP6 DUP3 PUSH2 0x12D6 JUMP JUMPDEST DUP7 SSTORE POP PUSH2 0x13B8 JUMP JUMPDEST PUSH1 0x1F NOT DUP5 AND PUSH2 0x1367 DUP7 PUSH2 0x1154 JUMP JUMPDEST PUSH0 JUMPDEST DUP3 DUP2 LT ISZERO PUSH2 0x138E JUMPI DUP5 DUP10 ADD MLOAD DUP3 SSTORE PUSH1 0x1 DUP3 ADD SWAP2 POP PUSH1 0x20 DUP6 ADD SWAP5 POP PUSH1 0x20 DUP2 ADD SWAP1 POP PUSH2 0x1369 JUMP JUMPDEST DUP7 DUP4 LT ISZERO PUSH2 0x13AB JUMPI DUP5 DUP10 ADD MLOAD PUSH2 0x13A7 PUSH1 0x1F DUP10 AND DUP3 PUSH2 0x12BA JUMP JUMPDEST DUP4 SSTORE POP JUMPDEST PUSH1 0x1 PUSH1 0x2 DUP9 MUL ADD DUP9 SSTORE POP POP POP JUMPDEST POP POP POP POP POP POP JUMP JUMPDEST PUSH0 PUSH1 0x80 DUP3 ADD SWAP1 POP PUSH2 0x13D3 PUSH0 DUP4 ADD DUP8 PUSH2 0xC01 JUMP JUMPDEST PUSH2 0x13E0 PUSH1 0x20 DUP4 ADD DUP7 PUSH2 0xBE9 JUMP JUMPDEST PUSH2 0x13ED PUSH1 0x40 DUP4 ADD DUP6 PUSH2 0xBE9 JUMP JUMPDEST PUSH2 0x13FA PUSH1 0x60 DUP4 ADD DUP5 PUSH2 0xC01 JUMP JUMPDEST SWAP6 SWAP5 POP POP POP POP POP JUMP INVALID LOG2 PUSH5 0x6970667358 0x22 SLT KECCAK256 0xEF 0x29 PUSH22 0xA9720EED741AB68BF9993A8F1FC60BF5B57C81D1B94A 0x2A PUSH23 0xF026F567BE64736F6C6343000818003300000000000000 "
				},
				"gasEstimates": {
					"creation": {
						"codeDepositCost": "1035400",
						"executionCost": "1072",
						"totalCost": "1036472"
					},
					"external": {
						"endSession(uint256)": "infinite",
						"initiateSession(address,string)": "infinite",
						"peers(address)": "infinite",
						"registerPeer(string[])": "infinite",
						"unregisterPeer()": "25757"
					}
				},
				"methodIdentifiers": {
					"endSession(uint256)": "26cc5583",
					"initiateSession(address,string)": "e31599ae",
					"peers(address)": "1c8590ba",
					"registerPeer(string[])": "d7338dda",
					"unregisterPeer()": "86815a25"
				}
			},
			"storageLayout": {
				"storage": [
					{
						"astId": 34,
						"contract": "contracts/DisSess-SeeMe.sol:PeerDiscovery",
						"label": "peers",
						"offset": 0,
						"slot": "0",
						"type": "t_mapping(t_address,t_struct(Peer)16_storage)"
					}
				],
				"types": {
					"t_address": {
						"encoding": "inplace",
						"label": "address",
						"numberOfBytes": "20"
					},
					"t_array(t_string_storage)dyn_storage": {
						"base": "t_string_storage",
						"encoding": "dynamic_array",
						"label": "string[]",
						"numberOfBytes": "32"
					},
					"t_bool": {
						"encoding": "inplace",
						"label": "bool",
						"numberOfBytes": "1"
					},
					"t_mapping(t_address,t_struct(Peer)16_storage)": {
						"encoding": "mapping",
						"key": "t_address",
						"label": "mapping(address => struct PeerDiscovery.Peer)",
						"numberOfBytes": "32",
						"value": "t_struct(Peer)16_storage"
					},
					"t_mapping(t_uint256,t_struct(Session)29_storage)": {
						"encoding": "mapping",
						"key": "t_uint256",
						"label": "mapping(uint256 => struct PeerDiscovery.Session)",
						"numberOfBytes": "32",
						"value": "t_struct(Session)29_storage"
					},
					"t_string_storage": {
						"encoding": "bytes",
						"label": "string",
						"numberOfBytes": "32"
					},
					"t_struct(Peer)16_storage": {
						"encoding": "inplace",
						"label": "struct PeerDiscovery.Peer",
						"members": [
							{
								"astId": 3,
								"contract": "contracts/DisSess-SeeMe.sol:PeerDiscovery",
								"label": "isOnline",
								"offset": 0,
								"slot": "0",
								"type": "t_bool"
							},
							{
								"astId": 5,
								"contract": "contracts/DisSess-SeeMe.sol:PeerDiscovery",
								"label": "peerAddress",
								"offset": 1,
								"slot": "0",
								"type": "t_address"
							},
							{
								"astId": 8,
								"contract": "contracts/DisSess-SeeMe.sol:PeerDiscovery",
								"label": "capabilities",
								"offset": 0,
								"slot": "1",
								"type": "t_array(t_string_storage)dyn_storage"
							},
							{
								"astId": 13,
								"contract": "contracts/DisSess-SeeMe.sol:PeerDiscovery",
								"label": "sessions",
								"offset": 0,
								"slot": "2",
								"type": "t_mapping(t_uint256,t_struct(Session)29_storage)"
							},
							{
								"astId": 15,
								"contract": "contracts/DisSess-SeeMe.sol:PeerDiscovery",
								"label": "sessionCount",
								"offset": 0,
								"slot": "3",
								"type": "t_uint256"
							}
						],
						"numberOfBytes": "128"
					},
					"t_struct(Session)29_storage": {
						"encoding": "inplace",
						"label": "struct PeerDiscovery.Session",
						"members": [
							{
								"astId": 18,
								"contract": "contracts/DisSess-SeeMe.sol:PeerDiscovery",
								"label": "initiator",
								"offset": 0,
								"slot": "0",
								"type": "t_address"
							},
							{
								"astId": 20,
								"contract": "contracts/DisSess-SeeMe.sol:PeerDiscovery",
								"label": "responder",
								"offset": 0,
								"slot": "1",
								"type": "t_address"
							},
							{
								"astId": 22,
								"contract": "contracts/DisSess-SeeMe.sol:PeerDiscovery",
								"label": "startTime",
								"offset": 0,
								"slot": "2",
								"type": "t_uint256"
							},
							{
								"astId": 24,
								"contract": "contracts/DisSess-SeeMe.sol:PeerDiscovery",
								"label": "endTime",
								"offset": 0,
								"slot": "3",
								"type": "t_uint256"
							},
							{
								"astId": 26,
								"contract": "contracts/DisSess-SeeMe.sol:PeerDiscovery",
								"label": "sessionData",
								"offset": 0,
								"slot": "4",
								"type": "t_string_storage"
							},
							{
								"astId": 28,
								"contract": "contracts/DisSess-SeeMe.sol:PeerDiscovery",
								"label": "isActive",
								"offset": 0,
								"slot": "5",
								"type": "t_bool"
							}
						],
						"numberOfBytes": "192"
					},
					"t_uint256": {
						"encoding": "inplace",
						"label": "uint256",
						"numberOfBytes": "32"
					}
				}
			},
			"userdoc": {
				"kind": "user",
				"methods": {},
				"version": 1
			}
		}
	}
}